:100000000C9436000C945E000C945E000C945E0020
:100010000C945E000C945E000C945E000C945E00E8
:100020000C945E000C945E000C945E000C945E00D8
:100030000C945E000C945E000C945E000C945E00C8
:100040000C9474040C945E000C9468060C94AB063B
:100050000C945E000C945E000C945E000C945E00A8
:100060000C945E000C945E006707160A11241FBEF4
:10007000CFEFD8E0DEBFCDBF11E0A0E0B1E0E6E910
:10008000F5E102C005900D92A236B107D9F722E042
:10009000A2E6B1E001C01D92AB38B207E1F710E073
:1000A000CCE6D0E004C02297FE010E94B60AC83612
:1000B000D107C9F70E94C9050C942D0A0C940000C1
:1000C000FC01858596850895CF93DF9300D000D0FD
:1000D00000D0CDB7DEB7AB011C821D821E82DC01D1
:1000E000ED91FC910190F081E02D19821A821B8222
:1000F0009E012F5F3F4FBE016C5F7F4F0995269693
:100100000FB6F894DEBF0FBECDBFDF91CF9108953B
:1001100080E090E00895E6E9F1E03AEF2081239F46
:10012000020E20E0211D20832181239F020E20E06A
:10013000211D21832281239F020E20E0211D228385
:100140001124339681E0ED3BF80741F70895FF92C3
:100150000F931F93CF93DF9300D01F92CDB7DEB7DD
:1001600060E071E086EC91E00E948C0506E911E008
:10017000FF24FA948091630191E0980F90936301BA
:100180008983FA82FB82B801CE0101960E94BD07E5
:1001900060917E028EE792E00E9402090E948B002D
:1001A00064E170E080E090E00E94ED040D5F1F4F7D
:1001B00081E00D3B1807F1F660E071E086EC91E01C
:1001C0000E948C0500E010E0FF24FA948091630106
:1001D00091E0980F909363018983FA82FB82B801C2
:1001E00066547E4FCE0101960E94BD0760917E024B
:1001F0008EE792E00E9402090E948B0064E170E0A9
:1002000080E090E00E94ED0403501109093D8FEF5A
:100210001807E1F60F900F900F90DF91CF911F918B
:100220000F91FF900895FC0180E191E0918380831C
:10023000138212828FEF86838783808781878287EC
:10024000838781E0848716861586158214828091C3
:100250007C0290917D02892B21F4F0937D02E09342
:100260007C02A0917A02B0917B02109721F0159642
:10027000FC93EE931497F0937B02E0937A0280E272
:1002800091E091838083089540E051EE60E070E05A
:1002900086EC91E00E94E60662E071E086EC91E077
:1002A0000E94A90580918E01811118C08EE891E00D
:1002B0000E94BB05892B91F085E791E00E94130114
:1002C00082E391E09093760180937501109285010D
:1002D000109284018EE891E00E94C40520E030E095
:1002E0004DE050E066E971E085E791E00E94DB09AE
:1002F00080918601811118C086E891E00E94BB05BB
:10030000892B91F084E691E00E94130184E491E04E
:1003100090936501809364011092740110927301AF
:1003200086E891E00E94C40520E030E04DE050E016
:1003300066E971E084E691E00E94DB0984E5809340
:100340007E02089587FF02C02A9A01C02A982B9A3C
:100350002B9886FF02C02A9A01C02A982B9A2B98C4
:1003600085FF02C02A9A01C02A982B9A2B9884FFF5
:1003700002C02A9A01C02A982B9A2B9883FF02C0A8
:100380002A9A01C02A982B9A2B9882FF02C02A9A97
:1003900001C02A982B9A2B9881FF02C02A9A01C08B
:1003A0002A982B9A2B9880FF02C02A9A01C02A987B
:1003B0002B9A2B980895DC018D919C91009739F030
:1003C000DC01ED91FC910280F381E02D0994089508
:1003D000229A239A0F960C94DB010F931F93CF93CD
:1003E000DF93EB018C01015F1F4FDC011F968D91A4
:1003F0009C915097009739F0DC01ED91FC910190B0
:10040000F081E02D099580E00E94A20180E00E9429
:10041000A20180E00E94A20180E00E94A2018C81E2
:100420009D81181619060CF064C08FEF0E94A2017E
:10043000E881F9818081882339F02E81382F320FAD
:1004400008F43FEF832F01C080E02C85382F329FC6
:10045000030E30E0311D1124832F0E94A201E88198
:10046000F9818181882339F02F81382F320F08F4E8
:100470003FEF832F01C080E02D85382F329F030E80
:1004800030E0311D1124832F0E94A201E881F981FF
:100490008281882339F02885382F320F08F43FEF06
:1004A000832F01C080E02E85382F329F030E30E06D
:1004B000311D1124832F0E94A20189859E81891BF1
:1004C0008E838A859F81891B8F838B859885891B65
:1004D00088878F8528813981280F311D87FD3A95BE
:1004E000398328832C813D81215031093D832C8320
:1004F00096CF2A813B8137FF02C0215E3F4FE90141
:1005000085E0D595C7958A95E1F78FEF0E94A20106
:1005100080E00E94A20180E00E94A20180E00E948F
:10052000A201219790F7C801DF91CF911F910F9100
:100530000C94DB0187FF02C02C9A01C02C982B9AE7
:100540002B9886FF02C02C9A01C02C982B9A2B98CE
:1005500085FF02C02C9A01C02C982B9A2B9884FFFF
:1005600002C02C9A01C02C982B9A2B9883FF02C0B2
:100570002C9A01C02C982B9A2B9882FF02C02C9A9F
:1005800001C02C982B9A2B9881FF02C02C9A01C095
:100590002C982B9A2B9880FF02C02C9A01C02C9883
:1005A0002B9A2B980895DC018D919C91009739F03E
:1005B000DC01ED91FC910280F381E02D0994089516
:1005C000249A239A0F960C94D3020F931F93CF93E0
:1005D000DF93EB018C01015F1F4FDC011F968D91B2
:1005E0009C915097009739F0DC01ED91FC910190BE
:1005F000F081E02D099580E00E949A0280E00E943F
:100600009A0280E00E949A0280E00E949A028C8105
:100610009D81181619060CF064C08FEF0E949A0293
:10062000E881F9818081882339F02E81382F320FBB
:1006300008F43FEF832F01C080E02C85382F329FD4
:10064000030E30E0311D1124832F0E949A02E881AD
:10065000F9818181882339F02F81382F320F08F4F6
:100660003FEF832F01C080E02D85382F329F030E8E
:1006700030E0311D1124832F0E949A02E881F98114
:100680008281882339F02885382F320F08F43FEF14
:10069000832F01C080E02E85382F329F030E30E07B
:1006A000311D1124832F0E949A0289859E81891B06
:1006B0008E838A859F81891B8F838B859885891B73
:1006C00088878F8528813981280F311D87FD3A95CC
:1006D000398328832C813D81215031093D832C832E
:1006E00096CF2A813B8137FF02C0215E3F4FE9014F
:1006F00095E0D595C7959A95E1F78FEF0E949A02FC
:1007000080E00E949A0280E00E949A0280E00E94AB
:100710009A02219790F7C801DF91CF911F910F9115
:100720000C94D302FC01118A108A0895FF920F9352
:100730001F93CF93DF93EC01809162018F5F982F1D
:1007400097709093620180FD02C080E001C080E854
:1007500091FD8064947009F0806220E1F22EF80E21
:1007600020E030E000E011E0FE01E20FF31F6485BD
:10077000662331F070E0C8010E94400A6F5F01C03B
:1007800060E061874F2D469F040E40E0411D11241B
:10079000411102C0168202C041504683662311F007
:1007A000615061872F5F3F4F23303105E9F6DF91BC
:1007B000CF911F910F91FF900895EF92FF920F93A9
:1007C0001F93CF93DF93CDB7DEB762970FB6F89440
:1007D000DEBF0FBECDBF8C017A01F901DC011C9692
:1007E0008C917A8369835C834B835E834D83908194
:1007F0009D8791819E8792819F87813029F4CE01C8
:1008000001960E94960306C01C861B861A861986CE
:1008100018861F82188AB701CE0101960E949203A2
:10082000D801ED91FC910484F585E02DBE016F5F48
:100830007F4FC801099562960FB6F894DEBF0FBED0
:10084000CDBFDF91CF911F910F91FF90EF90089551
:10085000EF92FF920F931F93CF93DF93CDB7DEB745
:1008600062970FB6F894DEBF0FBECDBF8C017A0140
:10087000F901DC011C968C917A8369835C834B833C
:100880005E834D8390819D8791819E8792819F8712
:10089000813029F4CE0101960E94960306C01C8681
:1008A0001B861A86198618861F8283E0888BB701FB
:1008B000CE0101960E949203D801ED91FC9104842F
:1008C000F585E02DBE016F5F7F4FC80109956296E7
:1008D0000FB6F894DEBF0FBECDBFDF91CF911F9151
:1008E0000F91FF90EF9008951F920F920FB60F9205
:1008F00011242F933F938F939F93AF93BF93809136
:10090000BE019091BF01A091C001B091C101309191
:10091000BD0123E0230F2D3720F40196A11DB11D49
:1009200005C026E8230F0296A11DB11D2093BD012D
:100930008093BE019093BF01A093C001B093C10109
:100940008091C2019091C301A091C401B091C501F1
:100950000196A11DB11D8093C2019093C301A09384
:10096000C401B093C501BF91AF919F918F913F9109
:100970002F910F900FBE0F901F9018952FB7F894DE
:100980006091BE017091BF018091C0019091C10141
:100990002FBF08953FB7F8948091C2019091C30191
:1009A000A091C401B091C50126B5A89B05C02F3FF9
:1009B00019F00196A11DB11D3FBF6627782F892F21
:1009C0009A2F620F711D811D911D42E0660F771FE6
:1009D000881F991F4A95D1F70895CF92DF92EF9221
:1009E000FF92CF93DF936B017C010E94CA04EB015D
:1009F000C114D104E104F10479F00E94CA046C1B13
:100A00007D0B683E7340A0F381E0C81AD108E1086D
:100A1000F108C851DC4FECCFDF91CF91FF90EF9000
:100A2000DF90CF900895789484B5826084BD84B5BA
:100A3000816084BD85B5826085BD85B5816085BDD9
:100A4000EEE6F0E0808181608083E1E8F0E01082F2
:100A5000808182608083808181608083E0E8F0E033
:100A6000808181608083E1EBF0E08081846080831D
:100A7000E0EBF0E0808181608083EAE7F0E0808154
:100A800084608083808182608083808181608083B4
:100A90008081806880831092C1000895CF92DF9298
:100AA000EF92FF920F931F93CF93DF936C017A0124
:100AB000EB01E60EF71E00E010E0CE15DF0561F059
:100AC0006991D601ED91FC910190F081E02DC60174
:100AD0000995080F191FF1CFC801DF91CF911F9120
:100AE0000F91FF90EF90DF90CF9008956115710501
:100AF00081F0DB010D900020E9F7AD014150510973
:100B0000461B570BDC01ED91FC910280F381E02D37
:100B1000099480E090E008950C947605DC01ED9155
:100B2000FC910190F081E02D09940F931F93CF93D6
:100B3000DF93EC016DE00E948E058C016AE0CE012E
:100B40000E948E05800F911FDF91CF911F910F9111
:100B500008950F931F93CF93DF93EC010E947605C6
:100B60008C01CE010E949505800F911FDF91CF91DE
:100B70001F910F910895FC0181E090E020812223D4
:100B800011F080E090E0089521E0FC0120830895B9
:100B900008950E9413050E944401C2EAD6E00E9413
:100BA000A7002097E1F30E94A206F9CFFC0124855B
:100BB0003585F901E05CFF4F80819181329620817B
:100BC0003181821B930B8F7399270895FC018485D3
:100BD0009585FC01E05CFF4F408151813296208178
:100BE00031814217530741F00190F081E02DE80F69
:100BF000F91F808190E008958FEF9FEF0895FC0129
:100C000084859585FC01E05CFF4F408151813296DF
:100C1000208131814217530779F0A081B181A80F5B
:100C2000B91F8C91208131812F5F3F4F2F73332764
:100C30003183208390E008958FEF9FEF0895FC01AA
:100C400081A1882329F0A489B5898C9186FFFBCFE7
:100C500011A20895CF93DF93FC0126853785D90132
:100C6000A05CBF4F8D919C91119701968F7399272E
:100C7000E901CE5BDF4F4881598184179507D9F38D
:100C80000D90BC91A02DA20FB31F6C93A685B785C4
:100C9000A05CBF4F11969C938E93A689B7892C9127
:100CA00081E090E0078C02C0880F991F0A94E2F758
:100CB000282B2C9381E081A30488F589E02D808185
:100CC0008064808381E090E0DF91CF910895089562
:100CD0001F920F920FB60F9211242F933F934F93B1
:100CE0008F939F93EF93FF938091C00082FD1CC070
:100CF0004091C60080916C0290916D0201968F73B5
:100D0000992720916E0230916F028217930771F03C
:100D1000E0916C02F0916D02E45DFD4F4083909391
:100D20006D0280936C0202C08091C600FF91EF912A
:100D30009F918F914F913F912F910F900FBE0F90E8
:100D40001F90189586EC91E00E94D605892B11F032
:100D50000C94670608951F920F920FB60F921124FC
:100D60002F933F938F939F93EF93FF9320912802AC
:100D70003091290280912A0290912B02281739077D
:100D800031F48091C1008F7D8093C10014C0E09147
:100D90002A02F0912B02E851FE4F208180912A0215
:100DA00090912B0201968F73992790932B02809339
:100DB0002A022093C600FF91EF919F918F913F915E
:100DC0002F910F900FBE0F901F901895CF92DF922A
:100DD000EF92FF92CF93DF93EC016A017B01411503
:100DE00081EE580761057105F9F0EC89FD8981E014
:100DF00090E008A002C0880F991F0A94E2F7808350
:100E000060E079E08DE390E0A70196010E94540A2A
:100E10002150310941095109569547953795279534
:100E2000211580E1380798F0EC89FD89108260E88F
:100E300074E88EE190E0A70196010E94540A2150C7
:100E40003109410951095695479537952795E88904
:100E5000F9893083EA89FB89208319A2EE89FF8909
:100E6000408181E090E09C010C8C02C0220F331F76
:100E70000A94E2F7422B4083EE89FF8940819C016E
:100E80000D8C02C0220F331F0A94E2F7422B4083DD
:100E9000EE89FF8940819C010E8C02C0220F331F16
:100EA0000A94E2F7422B4083EE89FF8920810F8C60
:100EB00002C0880F991F0A94E2F7809582238083ED
:100EC000DF91CF91FF90EF90DF90CF900895109237
:100ED000C9011092C80188EE93E0A0E0B0E08093D1
:100EE000CA019093CB01A093CC01B093CD0186E5CC
:100EF00091E09093C7018093C6018CE292E09093B9
:100F0000D3018093D20188EE91E09093D501809334
:100F1000D40185EC90E09093D7018093D60184ECC6
:100F200090E09093D9018093D80180EC90E0909369
:100F3000DB018093DA0181EC90E09093DD018093F6
:100F4000DC0182EC90E09093DF018093DE0186EC7F
:100F500090E09093E1018093E00184E08093E201CE
:100F600083E08093E30187E08093E40185E0809350
:100F7000E50181E08093E6010895FC01DB014081F9
:100F800061817281242F2F71220F220F220F522F85
:100F900035E5539F050E50E0511D1124352F942F38
:100FA0009074842F807247FD1FC091110AC0811177
:100FB00003C03095452F11C045E5450F20E03BEAC1
:100FC0002FC081110CC03AEA239F020E20E0211DA0
:100FD00011243BEA321B4AEA450F20E021C080E0A1
:100FE000452F4095252F0DC0911110C081110BC0C8
:100FF0003AEA239F020E20E0211D11244BEA421BF6
:101000002B5A30E00DC0252F209509C0811103C057
:101010003B5A2BEA03C0365580E025E5251B40E00E
:101020006F3F09F423C06623F1F0332321F0369F8C
:10103000030E30E0311D442321F0469F040E40E0B2
:10104000411D222321F0269F020E20E0211D1124A4
:10105000562F5095559F050E50E0511D1124350F08
:10106000450F250F03C02FEF4FEF3FEF7F3F09F4F0
:1010700020C050E0772321F0779F512D09F05F5F6A
:101080005523A1F0332321F0359F030E30E0311DAD
:10109000442321F0459F040E40E0411D222321F00E
:1010A000259F020E20E0211D112403C020E040E016
:1010B00030E03C9311964C93119712962C9308951F
:1010C0008F929F92AF92BF92EF92FF920F931F93D6
:1010D000CF93DF93EC01188219821A824423B9F16D
:1010E000E0E0F0E08B010A5F1F4F7B0189E0E80E32
:1010F000F11C842E912CA12CB12CD801AE0FBF1F56
:101100002C91D701AE0FBF1F6C912223E1F0662313
:10111000D1F030E040E050E02F5F3F4F4F4F5F4F46
:1011200070E080E090E06F5F7F4F8F4F9F4F0E9495
:10113000300A9B01AC01C501B4010E94300ADE01F6
:10114000AE0FBF1F8C933196E330F105B1F6CE019F
:10115000DF91CF911F910F91FF90EF90BF90AF90D3
:101160009F908F900895CF92DF92EF92FF92CF934E
:10117000DF93EC0180917402909175029C012F5FC6
:101180003F4F3093750220937402861797079CF1A6
:101190000E94BE049B01AC01E0917402F0917502C3
:1011A00088EE93E0E89FB001E99F700DF89F700D05
:1011B0001124882777FD8095982FC0907002D090D9
:1011C0007102E0907202F09073022C193D094E09F1
:1011D0005F090E94540A3A83298310927502109283
:1011E00074020E94BE046093700270937102809337
:1011F000720290937302DF91CF91FF90EF90DF9096
:10120000CF9008958F929F92AF92BF92EF92FF92EC
:101210000F931F93CF93DF9300D01F92CDB7DEB70C
:101220008C01F62EF80183819481A581B681892BEA
:101230008A2B8B2BD1F00E94CA048090760290906A
:101240007702A0907802B0907902681979098A092A
:101250009B09D80113968D909D90AD90BC901697E8
:10126000681579058A059B05E8F20E94CA04609317
:101270007602709377028093780290937902D80176
:101280001B96ED91FC911C97309751F0D801179661
:101290004D915D916D917C911A978F2D0995F82E46
:1012A000A0907C02B0907D02A114B10451F1F5012F
:1012B000E484D80111968D919C9112978436910502
:1012C00008F41486D501ED91FC91828093804F2D16
:1012D000B501CE0101960E946008F501458556854D
:1012E000628173819E012F5F3F4FC501F401099513
:1012F000D5011C96EC921C971496AD90BC90159756
:10130000D3CF69E170E0C8010E94B3080F900F903D
:101310000F90DF91CF911F910F91FF90EF90BF90B1
:10132000AF909F908F900895CF92DF92EF92FF92AF
:101330000F931F93CF93DF93EC014423F1F06115DA
:10134000710581F19B0140E050E060E472E48FE0C0
:1013500090E00E94760ACB80DC80ED80FE808901DF
:101360009A010C151D052E053F0510F49701860105
:101370000B831C832D833E8315C06115710571F0AD
:101380009B0140E050E060E472E48FE090E00E9456
:10139000760A2B833C834D835E8304C01B821C82B0
:1013A0001D821E82DF91CF911F910F91FF90EF90D0
:1013B000DF90CF900895CF92DF92EF92FF920F933C
:1013C0001F93CF93DF93EC016B018A017901121611
:1013D00013061CF07A0100E010E0E881F981048036
:1013E000F581E02DCE010995C801880F991F800F66
:1013F000911F8C0D9D1D9B838A83FE86ED86E8815F
:10140000F9810284F385E02DCE01099541E0BC010C
:101410008EE792E00E949409CE01DF91CF911F9157
:101420000F91FF90EF90DF90CF9008958FEF809312
:101430007E021092800210927F0210928A02109215
:1014400089028FEF9FEFDC018093850290938602E3
:10145000A0938702B09388020895F8940C94C90A67
:10146000DB018F939F930E94950ABF91AF91A29F3A
:10147000800D911DA39F900DB29F900D1124089592
:1014800097FB072E16F4009407D077FD09D00E9431
:10149000A00A07FC05D03EF4909581959F4F0895D2
:1014A000709561957F4F0895A1E21A2EAA1BBB1B70
:1014B000FD010DC0AA1FBB1FEE1FFF1FA217B30720
:1014C000E407F50720F0A21BB30BE40BF50B661F36
:1014D000771F881F991F1A9469F7609570958095FA
:1014E00090959B01AC01BD01CF010895052E97FB9E
:1014F0001EF400940E948D0A57FD07D00E94540AE2
:1015000007FC03D04EF40C948D0A5095409530950D
:1015100021953F4F4F4F5F4F08959095809570955F
:1015200061957F4F8F4F9F4F08950E94BA0AA59FE4
:10153000900DB49F900DA49F800D911D11240895CE
:10154000AA1BBB1B51E107C0AA1FBB1FA617B707E9
:1015500010F0A61BB70B881F991F5A95A9F7809505
:101560009095BC01CD010895EE0FFF1F0590F491F9
:10157000E02D0994A29FB001B39FC001A39F700DFD
:10158000811D1124911DB29F700D811D1124911D8B
:061590000895F894FFCF5E
:101596007800726573657474696E670000000000F8
:1015A600C805C805C8056400600088000000000082
:1015B600DD032804C805640060008800C805000033
:1015C6000000DD032804E002640060008800E502F4
:1015D60000000000DD032804E801640060008800C4
:1015E600ED01000000002A064E05D605FF05E605BA
:0215F6001F06CE
:00000001FF
