:100000000C9435000C945D000C945D000C945D0024
:100010000C945D000C945D000C945D000C945D00EC
:100020000C945D000C945D000C945D000C945D00DC
:100030000C945D000C945D000C945D000C945D00CC
:100040000C9451060C945D000C945D000C945D00C2
:100050000C945D000C945D000C945D000C945D00AC
:100060000C945D000C945D003A0611241FBECFEF86
:10007000D8E0DEBFCDBF11E0A0E0B1E0E6E4FFE0F4
:1000800002C005900D92A634B107D9F721E0A6E48D
:10009000B1E001C01D92A63FB207E1F710E0CAE649
:1000A000D0E004C02297FE010E948E07C836D10717
:1000B000C9F70E9477040C9405070C940000FC011A
:1000C000858596850895CF93DF9300D000D000D02A
:1000D000CDB7DEB7AB011C821D821E82DC01ED9123
:1000E000FC910190F081E02D19821A821B829E0101
:1000F0002F5F3F4FBE016C5F7F4F099526960FB66D
:10010000F894DEBF0FBECDBFDF91CF91089580E0A0
:1001100090E00895FB012081328130832283DC014D
:100120003C93318111963C93119712962C9308952C
:100130000F931F93CF93DF9300D000D000D0CDB7A3
:10014000DEB78091790190917A01892B09F051C035
:1001500000E010E080917E018C8380917F018D838F
:10016000809180018E83BE016C5F7F4FCE0101962E
:100170000E948A00F801E855FE4F898180838A81B8
:1001800081838B8182830D5F1F4F0732110511F729
:1001900000E010E080917B018C8380917C018D8355
:1001A00080917D018E83BE016C5F7F4FCE010196F1
:1001B0000E948A00F801EF57FE4F898180838A816F
:1001C00081838B8182830D5F1F4F0732110511F7E9
:1001D00084E68093E00164E680EE91E00E942605CB
:1001E0008091790190917A01019690937A018093A0
:1001F000790126960FB6F894DEBF0FBECDBFDF9112
:10020000CF911F910F910895FC0184E091E09183BB
:100210008083138212828FEF868387838087818712
:100220008287838781E084871686158615821482EB
:100230008091DE019091DF01892B21F4F093DF01A1
:10024000E093DE01A091DC01B091DD01109721F077
:100250001596FC93EE931497F093DD01E093DC0187
:1002600084E191E0918380830895809171018111EF
:1002700018C081E791E00E946904892B91F088E51C
:1002800091E00E94040186E291E0909359018093ED
:100290005801109268011092670181E791E00E9475
:1002A000720420E030E04DE050E068EA71E088E55B
:1002B00091E00E94FF0580916901811118C089E6D3
:1002C00091E00E946904892B91F087E491E00E94FB
:1002D000040188E391E090934801809347011092D4
:1002E00057011092560189E691E00E94720420E0C5
:1002F00030E04DE050E061E871E087E491E00E9479
:10030000FF051092CF011092D0011092D1011092EE
:100310007F0110927C0189EE80937E0187EF8093AC
:1003200080018FEF80937B0110927D01089587FFFC
:1003300002C02A9A01C02A982B9A2B9886FF02C0E5
:100340002A9A01C02A982B9A2B9885FF02C02A9AD4
:1003500001C02A982B9A2B9884FF02C02A9A01C0C8
:100360002A982B9A2B9883FF02C02A9A01C02A98B8
:100370002B9A2B9882FF02C02A9A01C02A982B9AA6
:100380002B9881FF02C02A9A01C02A982B9A2B9899
:1003900080FF02C02A9A01C02A982B9A2B980895B0
:1003A000DC018D919C91009739F0DC01ED91FC917D
:1003B0000280F381E02D09940895229A239A0F96E2
:1003C0000C94D0010F931F93CF93DF93EB018C011B
:1003D000015F1F4FDC011F968D919C9150970097F4
:1003E00039F0DC01ED91FC910190F081E02D09954F
:1003F00080E00E94970180E00E94970180E00E94C7
:10040000970180E00E9497018C819D811816190642
:100410000CF064C08FEF0E949701E881F981808120
:10042000882339F02E81382F320F08F43FEF832FC5
:1004300001C080E02C85382F329F030E30E0311D43
:100440001124832F0E949701E881F98181818823FB
:1004500039F02F81382F320F08F43FEF832F01C07E
:1004600080E02D85382F329F030E30E0311D11249E
:10047000832F0E949701E881F9818281882339F0D6
:100480002885382F320F08F43FEF832F01C080E01A
:100490002E85382F329F030E30E0311D1124832F1B
:1004A0000E94970189859E81891B8E838A859F8101
:1004B000891B8F838B859885891B88878F852881E9
:1004C0003981280F311D87FD3A95398328832C8186
:1004D0003D81215031093D832C8396CF2A813B8178
:1004E00037FF02C0215E3F4FE90185E0D595C795F2
:1004F0008A95E1F78FEF0E94970180E00E949701B3
:1005000080E00E94970180E00E949701219790F778
:10051000C801DF91CF911F910F910C94D00187FFFB
:1005200002C02C9A01C02C982B9A2B9886FF02C0EF
:100530002C9A01C02C982B9A2B9885FF02C02C9ADC
:1005400001C02C982B9A2B9884FF02C02C9A01C0D2
:100550002C982B9A2B9883FF02C02C9A01C02C98C0
:100560002B9A2B9882FF02C02C9A01C02C982B9AB0
:100570002B9881FF02C02C9A01C02C982B9A2B98A3
:1005800080FF02C02C9A01C02C982B9A2B980895BA
:10059000DC018D919C91009739F0DC01ED91FC918B
:1005A0000280F381E02D09940895249A239A0F96EE
:1005B0000C94C8020F931F93CF93DF93EB018C0130
:1005C000015F1F4FDC011F968D919C915097009702
:1005D00039F0DC01ED91FC910190F081E02D09955D
:1005E00080E00E948F0280E00E948F0280E00E94E3
:1005F0008F0280E00E948F028C819D81181619065F
:100600000CF064C08FEF0E948F02E881F981808135
:10061000882339F02E81382F320F08F43FEF832FD3
:1006200001C080E02C85382F329F030E30E0311D51
:100630001124832F0E948F02E881F9818181882310
:1006400039F02F81382F320F08F43FEF832F01C08C
:1006500080E02D85382F329F030E30E0311D1124AC
:10066000832F0E948F02E881F9818281882339F0EB
:100670002885382F320F08F43FEF832F01C080E028
:100680002E85382F329F030E30E0311D1124832F29
:100690000E948F0289859E81891B8E838A859F8116
:1006A000891B8F838B859885891B88878F852881F7
:1006B0003981280F311D87FD3A95398328832C8194
:1006C0003D81215031093D832C8396CF2A813B8186
:1006D00037FF02C0215E3F4FE90195E0D595C795F0
:1006E0009A95E1F78FEF0E948F0280E00E948F02BF
:1006F00080E00E948F0280E00E948F02219790F795
:10070000C801DF91CF911F910F910C94C802FC0199
:10071000118A108A0895FF920F931F93CF93DF934E
:10072000EC01809146018F5F982F9770909346015E
:1007300080FD02C080E001C080E891FD806494707B
:1007400009F0806220E1F22EF80E20E030E000E0B7
:1007500011E0FE01E20FF31F6485662331F070E0C3
:10076000C8010E9418076F5F01C060E061874F2DCC
:10077000469F040E40E0411D1124411102C0168223
:1007800002C041504683662311F0615061872F5F9C
:100790003F4F23303105E9F6DF91CF911F910F9143
:1007A000FF900895EF92FF920F931F93CF93DF93E3
:1007B000CDB7DEB762970FB6F894DEBF0FBECDBFE0
:1007C0008C017A01F901DC011C968C917A83698392
:1007D0005C834B835E834D8390819D8791819E874F
:1007E00092819F87813029F4CE0101960E948B036C
:1007F00006C01C861B861A86198618861F82188AD0
:10080000B701CE0101960E948703D801ED91FC91BA
:100810000484F585E02DBE016F5F7F4FC801099507
:1008200062960FB6F894DEBF0FBECDBFDF91CF91B9
:100830001F910F91FF90EF900895EF92FF920F9309
:100840001F93CF93DF93CDB7DEB762970FB6F894BF
:10085000DEBF0FBECDBF8C017A01F901DC011C9611
:100860008C917A8369835C834B835E834D83908113
:100870009D8791819E8792819F87813029F4CE0147
:1008800001960E948B0306C01C861B861A86198659
:1008900018861F8283E0888BB701CE0101960E94E3
:1008A0008703D801ED91FC910484F585E02DBE010C
:1008B0006F5F7F4FC801099562960FB6F894DEBF4F
:1008C0000FBECDBFDF91CF911F910F91FF90EF90A1
:1008D0000895FC0181E090E02081222311F080E066
:1008E00090E0089521E0FC012083089508950E947E
:1008F000CA060E943501C0E0D0E00E94980020970F
:10090000E1F30E940000F9CF8F929F92AF92BF92C5
:10091000EF92FF920F931F93CF93DF93EC01188216
:1009200019821A824423B9F1E0E0F0E08B010A5FFA
:100930001F4F7B0189E0E80EF11C842E912CA12C25
:10094000B12CD801AE0FBF1F2C91D701AE0FBF1F26
:100950006C912223E1F06623D1F030E040E050E0DA
:100960002F5F3F4F4F4F5F4F70E080E090E06F5F31
:100970007F4F8F4F9F4F0E9408079B01AC01C5011D
:10098000B4010E940807DE01AE0FBF1F8C933196A1
:10099000E330F105B1F6CE01DF91CF911F910F91B8
:1009A000FF90EF90BF90AF909F908F900895CF925F
:1009B000DF92EF92FF92CF93DF93EC018091D6010B
:1009C0009091D7019C012F5F3F4F3093D701209327
:1009D000D601861797079CF10E949B069B01AC01EC
:1009E000E091D601F091D70188EE93E0E89FB00145
:1009F000E99F700DF89F700D1124882777FD809571
:100A0000982FC090D201D090D301E090D401F09003
:100A1000D5012C193D094E095F090E942C073A8324
:100A200029831092D7011092D6010E949B066093F1
:100A3000D2017093D3018093D4019093D501DF91BB
:100A4000CF91FF90EF90DF90CF9008958F929F927B
:100A5000AF92BF92EF92FF920F931F93CF93DF93CA
:100A600000D01F92CDB7DEB78C01F62EF80183813E
:100A70009481A581B681892B8A2B8B2BD1F00E9482
:100A8000A7068090D8019090D901A090DA01B0908B
:100A9000DB01681979098A099B09D80113968D90A1
:100AA0009D90AD90BC901697681579058A059B05B9
:100AB000E8F20E94A7066093D8017093D901809351
:100AC000DA019093DB01D8011B96ED91FC911C9704
:100AD000309751F0D80117964D915D916D917C91B1
:100AE0001A978F2D0995F82EA090DE01B090DF01A6
:100AF000A114B10451F1F501E484D80111968D914E
:100B00009C9112978436910508F41486D501ED91D5
:100B1000FC91828093804F2DB501CE0101960E94F9
:100B20008404F50145855685628173819E012F5F9E
:100B30003F4FC501F4010995D5011C96EC921C9715
:100B40001496AD90BC901597D3CF69E170E0C801C1
:100B50000E94D7040F900F900F90DF91CF911F91BB
:100B60000F91FF90EF90BF90AF909F908F9008955E
:100B7000CF92DF92EF92FF920F931F93CF93DF9369
:100B8000EC014423F1F06115710581F19B0140E016
:100B900050E060E472E48FE090E00E944E07CB806A
:100BA000DC80ED80FE8089019A010C151D052E0563
:100BB0003F0510F4970186010B831C832D833E8330
:100BC00015C06115710571F09B0140E050E060E4D3
:100BD00072E48FE090E00E944E072B833C834D83AC
:100BE0005E8304C01B821C821D821E82DF91CF9116
:100BF0001F910F91FF90EF90DF90CF900895CF92CB
:100C0000DF92EF92FF920F931F93CF93DF93EC014C
:100C10006B018A017901121613061CF07A0100E0BB
:100C200010E0E881F9810480F581E02DCE0109957D
:100C3000C801880F991F800F911F8C0D9D1D9B83EC
:100C40008A83FE86ED86E881F9810284F385E02DB2
:100C5000CE01099541E0BC0180EE91E00E94B8050B
:100C6000CE01DF91CF911F910F91FF90EF90DF9018
:100C7000CF9008958FEF8093E0011092E2011092DF
:100C8000E1011092EC011092EB018FEF9FEFDC017C
:100C90008093E7019093E801A093E901B093EA0102
:100CA00008951F920F920FB60F9211242F933F9326
:100CB0008F939F93AF93BF938091EE019091EF013B
:100CC000A091F001B091F1013091ED0123E0230FEB
:100CD0002D3720F40196A11DB11D05C026E8230F74
:100CE0000296A11DB11D2093ED018093EE0190931A
:100CF000EF01A093F001B093F1018091F201909186
:100D0000F301A091F401B091F5010196A11DB11D6F
:100D10008093F2019093F301A093F401B093F50155
:100D2000BF91AF919F918F913F912F910F900FBEE7
:100D30000F901F9018952FB7F8946091EE01709165
:100D4000EF018091F0019091F1012FBF08953FB71D
:100D5000F8948091F2019091F301A091F401B09187
:100D6000F50126B5A89B05C02F3F19F00196A11DDE
:100D7000B11D3FBF6627782F892F9A2F620F711DF3
:100D8000811D911D42E0660F771F881F991F4A95AC
:100D9000D1F70895789484B5826084BD84B581606C
:100DA00084BD85B5826085BD85B5816085BDEEE673
:100DB000F0E0808181608083E1E8F0E01082808152
:100DC00082608083808181608083E0E8F0E08081C0
:100DD00081608083E1EBF0E0808184608083E0EBE0
:100DE000F0E0808181608083EAE7F0E080818460C8
:100DF0008083808182608083808181608083808124
:100E0000806880831092C1000895F8940C94A10723
:100E1000DB018F939F930E946D07BF91AF91A29FBB
:100E2000800D911DA39F900DB29F900D11240895E8
:100E300097FB072E16F4009407D077FD09D00E9487
:100E4000780707FC05D03EF4909581959F4F089553
:100E5000709561957F4F0895A1E21A2EAA1BBB1BC6
:100E6000FD010DC0AA1FBB1FEE1FFF1FA217B30776
:100E7000E407F50720F0A21BB30BE40BF50B661F8C
:100E8000771F881F991F1A9469F760957095809550
:100E900090959B01AC01BD01CF010895052E97FBF4
:100EA0001EF400940E94650757FD07D00E942C078E
:100EB00007FC03D04EF40C9465075095409530958F
:100EC00021953F4F4F4F5F4F0895909580957095B6
:100ED00061957F4F8F4F9F4F08950E949207A59F66
:100EE000900DB49F900DA49F800D911D1124089525
:100EF000AA1BBB1B51E107C0AA1FBB1FA617B70740
:100F000010F0A61BB70B881F991F5A95A9F780955B
:100F10009095BC01CD010895EE0FFF1F0590F4914F
:100F2000E02D0994A29FB001B39FC001A39F700D53
:100F3000811D1124911DB29F700D811D1124911DE1
:060F40000895F894FFCFB4
:100F46000000000076047604760463005F008700E4
:100F560000000000D2031D04760463005F008700D2
:100F6600760400000000D2031D04D50263005F0072
:100F76008700DA0200000000D2031D04DD016300D1
:060F86005F008700E2019C
:00000001FF
