:100000000C9435000C945D000C945D000C945D0024
:100010000C945D000C945D000C945D000C945D00EC
:100020000C945D000C945D000C945D000C945D00DC
:100030000C945D000C945D000C945D000C945D00CC
:100040000C94EE040C945D000C945D000C945D0027
:100050000C945D000C945D000C945D000C945D00AC
:100060000C945D000C945D00990711241FBECFEF26
:10007000D8E0DEBFCDBF11E0A0E0B1E0ECE9F0E1F7
:1000800002C005900D92AA34B107D9F722E0AAE484
:10009000B1E001C01D92A530B207E1F710E0CAE659
:1000A000D0E004C02297FE010E943908C836D1076B
:1000B000C9F70E94D6050C94B0070C940000FC010F
:1000C000858596850895CF93DF9300D000D000D02A
:1000D000CDB7DEB7AB011C821D821E82DC01ED9123
:1000E000FC910190F081E02D19821A821B829E0101
:1000F0002F5F3F4FBE016C5F7F4F099526960FB66D
:10010000F894DEBF0FBECDBFDF91CF91089580E0A0
:1001100090E00895FB012081328130832283DC014D
:100120003C93318111963C93119712962C9308952C
:100130000F931F93CF93DF9300D000D000D0CDB7A3
:10014000DEB780917F019091800100E010E0892B63
:1001500009F058C080917D0190917E01FC01EE0F65
:10016000FF1FE80FF91FEF57FE4F80818C838181BD
:100170008D8382818E83BE016C5F7F4FCE0101969D
:100180000E948A00F801E954FE4F898180838A81A8
:1001900081838B8182830D5F1F4F07321105D1F65A
:1001A00000E010E080917D0190917E01FC01EE0F56
:1001B000FF1FE80FF91FEF57FE4F80818C8381816D
:1001C0008D8382818E83BE016C5F7F4FCE0101964D
:1001D0000E948A00F801E057FE4F898180838A815E
:1001E00081838B8182830D5F1F4F07321105D1F60A
:1001F00080917F019091800101969093800180937E
:100200007F0142C08091DE018C838091DF018D836C
:100210008091E0018E83BE016C5F7F4FCE0101961D
:100220000E948A00F801E954FE4F898180838A8107
:1002300081838B8182830D5F1F4F0732110511F778
:1002400000E010E08091DE018C838091DF018D83DE
:100250008091E0018E83BE016C5F7F4FCE010196DD
:100260000E948A00F801E057FE4F898180838A81CD
:1002700081838B8182830D5F1F4F0732110511F738
:100280001092800110927F01609102016093F80149
:1002900088EF91E00E94850680917D0190917E011A
:1002A0008430910534F4019690937E0180937D0112
:1002B00004C010927E0110927D0160910001709146
:1002C0000101882777FD8095982F0E946705269663
:1002D0000FB6F894DEBF0FBECDBFDF91CF911F9157
:1002E0000F910895FC0188E091E09183808313824F
:1002F00012828FEF868387838087818782878387B7
:1003000081E0848716861586158214828091F60115
:100310009091F701892B21F4F093F701E093F60116
:10032000A091F401B091F501109721F01596FC937E
:10033000EE931497F093F501E093F40188E191E0D6
:1003400091838083089580917501811118C085E79C
:1003500091E00E94C805892B91F08CE591E00E9404
:1003600072018AE291E090935D0180935C011092AA
:100370006C0110926B0185E791E00E94D10520E0AD
:1003800030E04DE050E067EB71E08CE591E00E94D9
:100390005E0780916D01811118C08DE691E00E9489
:1003A000C805892B91F08BE491E00E9472018CE3E7
:1003B00091E090934C0180934B0110925B0110925D
:1003C0005A018DE691E00E94D10520E030E04DE039
:1003D00050E060E971E08BE491E00E945E071092CA
:1003E000DE011092DF011092E0018FEF8093810116
:1003F0001092820110928301109284011092850163
:1004000090E8909386019AE8909387019BE29093FD
:10041000880192EE9093890194E690938A0195E980
:1004200090938B019DEE90938C0180938D0180932E
:100430008E0180938F01089587FF02C02A9A01C020
:100440002A982B9A2B9886FF02C02A9A01C02A98D4
:100450002B9A2B9885FF02C02A9A01C02A982B9AC2
:100460002B9884FF02C02A9A01C02A982B9A2B98B5
:1004700083FF02C02A9A01C02A982B9A2B9882FFE8
:1004800002C02A9A01C02A982B9A2B9881FF02C099
:100490002A9A01C02A982B9A2B9880FF02C02A9A88
:1004A00001C02A982B9A2B980895DC018D919C917C
:1004B000009739F0DC01ED91FC910280F381E02D91
:1004C00009940895229A239A0F960C9455020F933B
:1004D0001F93CF93DF93EB018C01015F1F4FDC0172
:1004E0001F968D919C915097009739F0DC01ED910A
:1004F000FC910190F081E02D099580E00E941C02A2
:1005000080E00E941C0280E00E941C0280E00E94A9
:100510001C028C819D81181619060CF064C08FEFA7
:100520000E941C02E881F9818081882339F02E81A4
:10053000382F320F08F43FEF832F01C080E02C8565
:10054000382F329F030E30E0311D1124832F0E947B
:100550001C02E881F9818181882339F02F81382FAD
:10056000320F08F43FEF832F01C080E02D85382F34
:10057000329F030E30E0311D1124832F0E941C0294
:10058000E881F9818281882339F02885382F320F5C
:1005900008F43FEF832F01C080E02E85382F329F73
:1005A000030E30E0311D1124832F0E941C02898527
:1005B0009E81891B8E838A859F81891B8F838B8572
:1005C0009885891B88878F8528813981280F311D5F
:1005D00087FD3A95398328832C813D81215031094B
:1005E0003D832C8396CF2A813B8137FF02C0215E59
:1005F0003F4FE90145E0D595C7954A95E1F78FEF63
:100600000E941C0280E00E941C0280E00E941C02EA
:1006100080E00E941C02219790F7C801DF91CF91E2
:100620001F910F910C94550287FF02C02C9A01C0B4
:100630002C982B9A2B9886FF02C02C9A01C02C98DC
:100640002B9A2B9885FF02C02C9A01C02C982B9ACC
:100650002B9884FF02C02C9A01C02C982B9A2B98BF
:1006600083FF02C02C9A01C02C982B9A2B9882FFF2
:1006700002C02C9A01C02C982B9A2B9881FF02C0A3
:100680002C9A01C02C982B9A2B9880FF02C02C9A90
:1006900001C02C982B9A2B980895DC018D919C9188
:1006A000009739F0DC01ED91FC910280F381E02D9F
:1006B00009940895249A239A0F960C944D030F934E
:1006C0001F93CF93DF93EB018C01015F1F4FDC0180
:1006D0001F968D919C915097009739F0DC01ED9118
:1006E000FC910190F081E02D099580E00E941403B7
:1006F00080E00E94140380E00E94140380E00E94C6
:1007000014038C819D81181619060CF064C08FEFBC
:100710000E941403E881F9818081882339F02E81B9
:10072000382F320F08F43FEF832F01C080E02C8573
:10073000382F329F030E30E0311D1124832F0E9489
:100740001403E881F9818181882339F02F81382FC2
:10075000320F08F43FEF832F01C080E02D85382F42
:10076000329F030E30E0311D1124832F0E941403A9
:10077000E881F9818281882339F02885382F320F6A
:1007800008F43FEF832F01C080E02E85382F329F81
:10079000030E30E0311D1124832F0E94140389853C
:1007A0009E81891B8E838A859F81891B8F838B8580
:1007B0009885891B88878F8528813981280F311D6D
:1007C00087FD3A95398328832C813D812150310959
:1007D0003D832C8396CF2A813B8137FF02C0215E67
:1007E0003F4FE90155E0D595C7955A95E1F78FEF51
:1007F0000E94140380E00E94140380E00E9414030E
:1008000080E00E941403219790F7C801DF91CF91F7
:100810001F910F910C944D03FC01118A108A0895C9
:10082000FF920F931F93CF93DF93EC0180914A01C6
:100830008F5F982F977090934A0180FD02C080E0EF
:1008400001C080E891FD8064947009F0806260E1ED
:10085000F62EF80E20E030E000E011E0FE01E20F9D
:10086000F31F6485662331F070E0C8010E94C3075E
:100870006F5F01C060E061874F2D469F040E40E02E
:10088000411D1124411102C0168202C0415046830D
:10089000662311F0615061872F5F3F4F2330310590
:1008A000E9F6DF91CF911F910F91FF900895EF929C
:1008B000FF920F931F93CF93DF93CDB7DEB762976D
:1008C0000FB6F894DEBF0FBECDBF8C017A01F901DF
:1008D000DC011C968C917A8369835C834B835E83F5
:1008E0004D8390819D8791819E8792819F878130E2
:1008F00029F4CE0101960E94100406C01C861B86B6
:100900001A86198618861F82188AB701CE010196A9
:100910000E940C04D801ED91FC910484F585E02D32
:10092000BE016F5F7F4FC801099562960FB6F894BC
:10093000DEBF0FBECDBFDF91CF911F910F91FF9012
:10094000EF900895EF92FF920F931F93CF93DF9351
:10095000CDB7DEB762970FB6F894DEBF0FBECDBF3E
:100960008C017A01F901DC011C968C917A836983F0
:100970005C834B835E834D8390819D8791819E87AD
:1009800092819F87813029F4CE0101960E94100444
:1009900006C01C861B861A86198618861F8283E06D
:1009A000888BB701CE0101960E940C04D801ED910D
:1009B000FC910484F585E02DBE016F5F7F4FC80177
:1009C000099562960FB6F894DEBF0FBECDBFDF91DA
:1009D000CF911F910F91FF90EF9008951F920F926A
:1009E0000FB60F9211242F933F938F939F93AF9342
:1009F000BF938091E2019091E301A091E401B09155
:100A0000E5013091E10123E0230F2D3720F4019619
:100A1000A11DB11D05C026E8230F0296A11DB11D21
:100A20002093E1018093E2019093E301A093E4011C
:100A3000B093E5018091E6019091E701A091E80172
:100A4000B091E9010196A11DB11D8093E60190933B
:100A5000E701A093E801B093E901BF91AF919F91A5
:100A60008F913F912F910F900FBE0F901F9018956F
:100A70002FB7F8946091E2017091E3018091E40155
:100A80009091E5012FBF08953FB7F8948091E6015A
:100A90009091E701A091E801B091E90126B5A89BEA
:100AA00005C02F3F19F00196A11DB11D3FBF66275C
:100AB000782F892F9A2F620F711D811D911D42E0A1
:100AC000660F771F881F991F4A95D1F70895CF9217
:100AD000DF92EF92FF92CF93DF936B017C010E9434
:100AE0004405EB01C114D104E104F10479F00E9442
:100AF00044056C1B7D0B683E7340A0F381E0C81A6F
:100B0000D108E108F108C851DC4FECCFDF91CF915B
:100B1000FF90EF90DF90CF900895789484B5826035
:100B200084BD84B5816084BD85B5826085BD85B591
:100B3000816085BDEEE6F0E0808181608083E1E840
:100B4000F0E0108280818260808380818160808378
:100B5000E0E8F0E0808181608083E1EBF0E080817B
:100B600084608083E0EBF0E0808181608083EAE74D
:100B7000F0E08081846080838081826080838081D6
:100B8000816080838081806880831092C100089595
:100B9000FC0181E090E02081222311F080E090E0D0
:100BA000089521E0FC012083089508950E948D0599
:100BB0000E94A301C0E0D0E00E9498002097E1F3DA
:100BC0000E940000F9CF8F929F92AF92BF92EF9256
:100BD000FF920F931F93CF93DF93EC01188219823A
:100BE0001A824423B9F1E0E0F0E08B010A5F1F4F65
:100BF0007B0189E0E80EF11C842E912CA12CB12CF4
:100C0000D801AE0FBF1F2C91D701AE0FBF1F6C9143
:100C10002223E1F06623D1F030E040E050E02F5F86
:100C20003F4F4F4F5F4F70E080E090E06F5F7F4F2E
:100C30008F4F9F4F0E94B3079B01AC01C501B401C8
:100C40000E94B307DE01AE0FBF1F8C933196E330D5
:100C5000F105B1F6CE01DF91CF911F910F91FF9079
:100C6000EF90BF90AF909F908F900895CF92DF92BA
:100C7000EF92FF92CF93DF93EC018091EE01909180
:100C8000EF019C012F5F3F4F3093EF012093EE0166
:100C9000861797079CF10E9438059B01AC01E091F3
:100CA000EE01F091EF0188EE93E0E89FB001E99F3B
:100CB000700DF89F700D1124882777FD8095982F6F
:100CC000C090EA01D090EB01E090EC01F090ED01D2
:100CD0002C193D094E095F090E94D7073A832983E1
:100CE0001092EF011092EE010E9438056093EA0124
:100CF0007093EB018093EC019093ED01DF91CF9124
:100D0000FF90EF90DF90CF9008958F929F92AF92D7
:100D1000BF92EF92FF920F931F93CF93DF9300D078
:100D20001F92CDB7DEB78C01F62EF8018381948136
:100D3000A581B681892B8A2B8B2BD1F00E9444058B
:100D40008090F0019090F101A090F201B090F30139
:100D5000681979098A099B09D80113968D909D908D
:100D6000AD90BC901697681579058A059B05E8F249
:100D70000E9444056093F0017093F1018093F201A9
:100D80009093F301D8011B96ED91FC911C9730973D
:100D900051F0D80117964D915D916D917C911A9704
:100DA0008F2D0995F82EA090F601B090F701A114AF
:100DB000B10451F1F501E484D80111968D919C9113
:100DC00012978436910508F41486D501ED91FC91B3
:100DD000828093804F2DB501CE0101960E94E305DC
:100DE000F50145855685628173819E012F5F3F4FD6
:100DF000C501F4010995D5011C96EC921C97149637
:100E0000AD90BC901597D3CF69E170E0C8010E9406
:100E100036060F900F900F90DF91CF911F910F9199
:100E2000FF90EF90BF90AF909F908F900895CF92DA
:100E3000DF92EF92FF920F931F93CF93DF93EC011A
:100E40004423F1F06115710581F19B0140E050E010
:100E500060E472E48FE090E00E94F907CB80DC80D0
:100E6000ED80FE8089019A010C151D052E053F05B8
:100E700010F4970186010B831C832D833E8315C0DC
:100E80006115710571F09B0140E050E060E472E48F
:100E90008FE090E00E94F9072B833C834D835E83B3
:100EA00004C01B821C821D821E82DF91CF911F9184
:100EB0000F91FF90EF90DF90CF900895CF92DF9247
:100EC000EF92FF920F931F93CF93DF93EC016B018F
:100ED0008A017901121613061CF07A0100E010E075
:100EE000E881F9810480F581E02DCE010995C801E2
:100EF000880F991F800F911F8C0D9D1D9B838A83E6
:100F0000FE86ED86E881F9810284F385E02DCE012D
:100F1000099541E0BC0188EF91E00E941707CE01DE
:100F2000DF91CF911F910F91FF90EF90DF90CF90C5
:100F300008958FEF8093F8011092FA011092F90151
:100F400010920402109203028FEF9FEFDC01809356
:100F5000FF0190930002A0930102B0930202089552
:100F6000F8940C944C08DB018F939F930E9418080F
:100F7000BF91AF91A29F800D911DA39F900DB29F35
:100F8000900D1124089597FB072E16F4009407D0B6
:100F900077FD09D00E94230807FC05D03EF4909508
:100FA00081959F4F0895709561957F4F0895A1E2B7
:100FB0001A2EAA1BBB1BFD010DC0AA1FBB1FEE1FD3
:100FC000FF1FA217B307E407F50720F0A21BB30B1E
:100FD000E40BF50B661F771F881F991F1A9469F79A
:100FE00060957095809590959B01AC01BD01CF01F6
:100FF0000895052E97FB1EF400940E94100857FDDB
:1010000007D00E94D70707FC03D04EF40C941008B9
:1010100050954095309521953F4F4F4F5F4F089524
:1010200090958095709561957F4F8F4F9F4F089554
:101030000E943D08A59F900DB49F900DA49F800D28
:10104000911D11240895AA1BBB1B51E107C0AA1FC3
:10105000BB1FA617B70710F0A61BB70B881F991F59
:101060005A95A9F780959095BC01CD010895EE0F92
:10107000FF1F0590F491E02D0994A29FB001B39F4A
:10108000C001A39F700D811D1124911DB29F700D91
:0C109000811D1124911D0895F894FFCFDC
:10109C003200FF0000000000D505D505D505630022
:1010AC005F008700000000005704A204D505630010
:1010BC005F008700D505000000005704A2045A0306
:1010CC0063005F0087005F03000000005704A20468
:0A10DC00620263005F0087006702F4
:00000001FF
