:100000000C9435000C945D000C945D000C945D0024
:100010000C945D000C945D000C945D000C945D00EC
:100020000C945D000C945D000C945D000C945D00DC
:100030000C945D000C945D000C945D000C945D00CC
:100040000C94A0040C945D000C945D000C945D0075
:100050000C945D000C945D000C945D000C945D00AC
:100060000C945D000C945D004B0711241FBECFEF74
:10007000D8E0DEBFCDBF11E0A0E0B1E0E0E0F0E10C
:1000800002C005900D92A834B107D9F722E0A8E488
:10009000B1E001C01D92A230B207E1F710E0CAE65C
:1000A000D0E004C02297FE010E94EB07C836D107BA
:1000B000C9F70E9488050C9462070C940000FC01AB
:1000C000858596850895CF93DF9300D000D000D02A
:1000D000CDB7DEB7AB011C821D821E82DC01ED9123
:1000E000FC910190F081E02D19821A821B829E0101
:1000F0002F5F3F4FBE016C5F7F4F099526960FB66D
:10010000F894DEBF0FBECDBFDF91CF91089580E0A0
:1001100090E00895FB012081328130832283DC014D
:100120003C93318111963C93119712962C9308952C
:100130000F931F93CF93DF9300D000D000D0CDB7A3
:10014000DEB700E010E0809181018C838091820114
:100150008D83809183018E83BE016C5F7F4FCE01C2
:1001600001960E948A00F801EC54FE4F8981808339
:100170008A8181838B8182830D5F1F4F0732110536
:1001800011F700E010E0809181018C838091820161
:100190008D83809183018E83BE016C5F7F4FCE0182
:1001A00001960E948A00F801E357FE4F89818083FF
:1001B0008A8181838B8182830D5F1F4F07321105F6
:1001C00011F760917B016093F50185EF91E00E944A
:1001D000370620917D0180917B0190917C01211156
:1001E00012C08F3F91055CF4209100013091010114
:1001F000280F391F30937C0120937B0114C081E0CC
:1002000080937D0110C0863091055CF02091000143
:1002100030910101821B930B90937C0180937B01B1
:1002200002C010927D0169E170E080E090E00E94E0
:10023000190526960FB6F894DEBF0FBECDBFDF912D
:10024000CF911F910F910895FC0186E091E0918379
:100250008083138212828FEF8683878380878187D2
:100260008287838781E084871686158615821482AB
:100270008091F3019091F401892B21F4F093F40122
:10028000E093F301A091F101B091F201109721F0F8
:100290001596FC93EE931497F093F201E093F1011D
:1002A00086E191E0918380830895809173018111AB
:1002B00018C083E791E00E947A05892B91F08AE5C6
:1002C00091E00E94240188E291E090935B01809389
:1002D0005A0110926A011092690183E791E00E942D
:1002E000830520E030E04DE050E064EB71E08AE50A
:1002F00091E00E94100780916B01811118C08BE67C
:1003000091E00E947A05892B91F089E491E00E94A6
:1003100024018AE391E090934A018093490110926D
:100320005901109258018BE691E00E94830520E06C
:1003300030E04DE050E06DE871E089E491E00E942A
:1003400010071092DB011092DC011092DD018FEF9B
:1003500080937E0110927F011092800110928101A2
:100360001092820190E8909383019AE8909384011F
:100370009BE29093850192EE9093860194E6909390
:10038000870195E9909388019DEE90938901809370
:100390008A0180938B0180938C01089587FF02C0AE
:1003A0002A9A01C02A982B9A2B9886FF02C02A9A73
:1003B00001C02A982B9A2B9885FF02C02A9A01C067
:1003C0002A982B9A2B9884FF02C02A9A01C02A9857
:1003D0002B9A2B9883FF02C02A9A01C02A982B9A45
:1003E0002B9882FF02C02A9A01C02A982B9A2B9838
:1003F00081FF02C02A9A01C02A982B9A2B9880FF6D
:1004000002C02A9A01C02A982B9A2B980895DC01E1
:100410008D919C91009739F0DC01ED91FC91028067
:10042000F381E02D09940895229A239A0F960C9453
:1004300007020F931F93CF93DF93EB018C01015FB2
:100440001F4FDC011F968D919C915097009739F0BA
:10045000DC01ED91FC910190F081E02D099580E0A7
:100460000E94CE0180E00E94CE0180E00E94CE0179
:1004700080E00E94CE018C819D81181619060CF037
:1004800064C08FEF0E94CE01E881F98180818823CA
:1004900039F02E81382F320F08F43FEF832F01C03F
:1004A00080E02C85382F329F030E30E0311D11245F
:1004B000832F0E94CE01E881F9818181882339F060
:1004C0002F81382F320F08F43FEF832F01C080E0D7
:1004D0002D85382F329F030E30E0311D1124832FDC
:1004E0000E94CE01E881F9818281882339F0288534
:1004F000382F320F08F43FEF832F01C080E02E85A4
:10050000382F329F030E30E0311D1124832F0E94BB
:10051000CE0189859E81891B8E838A859F81891B57
:100520008F838B859885891B88878F852881398162
:10053000280F311D87FD3A95398328832C813D8111
:10054000215031093D832C8396CF2A813B8137FF8F
:1005500002C0215E3F4FE90185E0D595C7958A9598
:10056000E1F78FEF0E94CE0180E00E94CE0180E093
:100570000E94CE0180E00E94CE01219790F7C80131
:10058000DF91CF911F910F910C94070287FF02C05A
:100590002C9A01C02C982B9A2B9886FF02C02C9A7B
:1005A00001C02C982B9A2B9885FF02C02C9A01C071
:1005B0002C982B9A2B9884FF02C02C9A01C02C985F
:1005C0002B9A2B9883FF02C02C9A01C02C982B9A4F
:1005D0002B9882FF02C02C9A01C02C982B9A2B9842
:1005E00081FF02C02C9A01C02C982B9A2B9880FF77
:1005F00002C02C9A01C02C982B9A2B980895DC01EC
:100600008D919C91009739F0DC01ED91FC91028075
:10061000F381E02D09940895249A239A0F960C945F
:10062000FF020F931F93CF93DF93EB018C01015FC8
:100630001F4FDC011F968D919C915097009739F0C8
:10064000DC01ED91FC910190F081E02D099580E0B5
:100650000E94C60280E00E94C60280E00E94C6029C
:1006600080E00E94C6028C819D81181619060CF04C
:1006700064C08FEF0E94C602E881F98180818823DF
:1006800039F02E81382F320F08F43FEF832F01C04D
:1006900080E02C85382F329F030E30E0311D11246D
:1006A000832F0E94C602E881F9818181882339F075
:1006B0002F81382F320F08F43FEF832F01C080E0E5
:1006C0002D85382F329F030E30E0311D1124832FEA
:1006D0000E94C602E881F9818281882339F0288549
:1006E000382F320F08F43FEF832F01C080E02E85B2
:1006F000382F329F030E30E0311D1124832F0E94CA
:10070000C60289859E81891B8E838A859F81891B6C
:100710008F838B859885891B88878F852881398170
:10072000280F311D87FD3A95398328832C813D811F
:10073000215031093D832C8396CF2A813B8137FF9D
:1007400002C0215E3F4FE90195E0D595C7959A9586
:10075000E1F78FEF0E94C60280E00E94C60280E0AF
:100760000E94C60280E00E94C602219790F7C8014D
:10077000DF91CF911F910F910C94FF02FC01118A20
:10078000108A0895FF920F931F93CF93DF93EC018C
:10079000809148018F5F982F97709093480180FD5A
:1007A00002C080E001C080E891FD8064947009F08F
:1007B000806220E1F22EF80E20E030E000E011E04F
:1007C000FE01E20FF31F6485662331F070E0C8017B
:1007D0000E9475076F5F01C060E061874F2D469FE3
:1007E000040E40E0411D1124411102C0168202C0D6
:1007F00041504683662311F0615061872F5F3F4F60
:1008000023303105E9F6DF91CF911F910F91FF90D1
:100810000895EF92FF920F931F93CF93DF93CDB77D
:10082000DEB762970FB6F894DEBF0FBECDBF8C0166
:100830007A01F901DC011C968C917A8369835C83CF
:100840004B835E834D8390819D8791819E879281AA
:100850009F87813029F4CE0101960E94C20306C011
:100860001C861B861A86198618861F82188AB7016D
:10087000CE0101960E94BE03D801ED91FC91048443
:10088000F585E02DBE016F5F7F4FC8010995629627
:100890000FB6F894DEBF0FBECDBFDF91CF911F9191
:1008A0000F91FF90EF900895EF92FF920F931F9397
:1008B000CF93DF93CDB7DEB762970FB6F894DEBF64
:1008C0000FBECDBF8C017A01F901DC011C968C9121
:1008D0007A8369835C834B835E834D8390819D879C
:1008E00091819E8792819F87813029F4CE01019664
:1008F0000E94C20306C01C861B861A8619861886AB
:100900001F8283E0888BB701CE0101960E94BE034F
:10091000D801ED91FC910484F585E02DBE016F5F57
:100920007F4FC801099562960FB6F894DEBF0FBEDF
:10093000CDBFDF91CF911F910F91FF90EF90089560
:100940001F920F920FB60F9211242F933F938F9304
:100950009F93AF93BF938091DF019091E001A091AD
:10096000E101B091E2013091DE0123E0230F2D3748
:1009700020F40196A11DB11D05C026E8230F0296A3
:10098000A11DB11D2093DE018093DF019093E00152
:10099000A093E101B093E2018091E3019091E40121
:1009A000A091E501B091E6010196A11DB11D8093D2
:1009B000E3019093E401A093E501B093E601BF91B8
:1009C000AF919F918F913F912F910F900FBE0F90FC
:1009D0001F9018952FB7F8946091DF017091E00196
:1009E0008091E1019091E2012FBF08953FB7F89403
:1009F0008091E3019091E401A091E501B091E601BD
:100A000026B5A89B05C02F3F19F00196A11DB11D69
:100A10003FBF6627782F892F9A2F620F711D811D86
:100A2000911D42E0660F771F881F991F4A95D1F7E5
:100A30000895CF92DF92EF92FF92CF93DF936B01F5
:100A40007C010E94F604EB01C114D104E104F1041D
:100A500079F00E94F6046C1B7D0B683E7340A0F396
:100A600081E0C81AD108E108F108C851DC4FECCF89
:100A7000DF91CF91FF90EF90DF90CF900895789421
:100A800084B5826084BD84B5816084BD85B5826093
:100A900085BD85B5816085BDEEE6F0E08081816031
:100AA0008083E1E8F0E01082808182608083808131
:100AB00081608083E0E8F0E0808181608083E1EB09
:100AC000F0E0808184608083E0EBF0E080818160F1
:100AD0008083EAE7F0E080818460808380818260A7
:100AE0008083808181608083808180688083109290
:100AF000C1000895FC0181E090E02081222311F0E3
:100B000080E090E0089521E0FC012083089508959D
:100B10000E943F050E945501C0E0D0E00E9498006D
:100B20002097E1F30E940000F9CF8F929F92AF923D
:100B3000BF92EF92FF920F931F93CF93DF93EC013D
:100B4000188219821A824423B9F1E0E0F0E08B01A7
:100B50000A5F1F4F7B0189E0E80EF11C842E912C67
:100B6000A12CB12CD801AE0FBF1F2C91D701AE0F15
:100B7000BF1F6C912223E1F06623D1F030E040E00A
:100B800050E02F5F3F4F4F4F5F4F70E080E090E0AD
:100B90006F5F7F4F8F4F9F4F0E9465079B01AC0196
:100BA000C501B4010E946507DE01AE0FBF1F8C9323
:100BB0003196E330F105B1F6CE01DF91CF911F916F
:100BC0000F91FF90EF90BF90AF909F908F900895FE
:100BD000CF92DF92EF92FF92CF93DF93EC0180915F
:100BE000EB019091EC019C012F5F3F4F3093EC01A2
:100BF0002093EB01861797079CF10E94EA049B0162
:100C0000AC01E091EB01F091EC0188EE93E0E89FFC
:100C1000B001E99F700DF89F700D1124882777FDB2
:100C20008095982FC090E701D090E801E090E9010D
:100C3000F090EA012C193D094E095F090E948907CD
:100C40003A8329831092EC011092EB010E94EA048E
:100C50006093E7017093E8018093E9019093EA01C2
:100C6000DF91CF91FF90EF90DF90CF9008958F921A
:100C70009F92AF92BF92EF92FF920F931F93CF93E9
:100C8000DF9300D01F92CDB7DEB78C01F62EF801AE
:100C900083819481A581B681892B8A2B8B2BD1F0FE
:100CA0000E94F6048090ED019090EE01A090EF017B
:100CB000B090F001681979098A099B09D801139647
:100CC0008D909D90AD90BC901697681579058A051A
:100CD0009B05E8F20E94F6046093ED017093EE012B
:100CE0008093EF019093F001D8011B96ED91FC9158
:100CF0001C97309751F0D80117964D915D916D91E9
:100D00007C911A978F2D0995F82EA090F301B09041
:100D1000F401A114B10451F1F501E484D801119654
:100D20008D919C9112978436910508F41486D50113
:100D3000ED91FC91828093804F2DB501CE010196FB
:100D40000E949505F50145855685628173819E0156
:100D50002F5F3F4FC501F4010995D5011C96EC9218
:100D60001C971496AD90BC901597D3CF69E170E0B5
:100D7000C8010E94E8050F900F900F90DF91CF916E
:100D80001F910F91FF90EF90BF90AF909F908F9029
:100D90000895CF92DF92EF92FF920F931F93CF931C
:100DA000DF93EC014423F1F06115710581F19B01A2
:100DB00040E050E060E472E48FE090E00E94AB0716
:100DC000CB80DC80ED80FE8089019A010C151D0529
:100DD0002E053F0510F4970186010B831C832D839C
:100DE0003E8315C06115710571F09B0140E050E034
:100DF00060E472E48FE090E00E94AB072B833C83B9
:100E00004D835E8304C01B821C821D821E82DF9183
:100E1000CF911F910F91FF90EF90DF90CF900895A9
:100E2000CF92DF92EF92FF920F931F93CF93DF93B6
:100E3000EC016B018A017901121613061CF07A018C
:100E400000E010E0E881F9810480F581E02DCE0119
:100E50000995C801880F991F800F911F8C0D9D1D4A
:100E60009B838A83FE86ED86E881F9810284F3857F
:100E7000E02DCE01099541E0BC0185EF91E00E9493
:100E8000C906CE01DF91CF911F910F91FF90EF9096
:100E9000DF90CF9008958FEF8093F5011092F701C6
:100EA0001092F60110920102109200028FEF9FEF54
:100EB000DC018093FC019093FD01A093FE01B093AF
:100EC000FF010895F8940C94FE07DB018F939F9324
:100ED0000E94CA07BF91AF91A29F800D911DA39F51
:100EE000900DB29F900D1124089597FB072E16F4D4
:100EF000009407D077FD09D00E94D50707FC05D0E4
:100F00003EF4909581959F4F0895709561957F4F20
:100F10000895A1E21A2EAA1BBB1BFD010DC0AA1F3A
:100F2000BB1FEE1FFF1FA217B307E407F50720F052
:100F3000A21BB30BE40BF50B661F771F881F991FCD
:100F40001A9469F760957095809590959B01AC0116
:100F5000BD01CF010895052E97FB1EF400940E9459
:100F6000C20757FD07D00E94890707FC03D04EF443
:100F70000C94C20750954095309521953F4F4F4FA7
:100F80005F4F089590958095709561957F4F8F4F35
:100F90009F4F08950E94EF07A59F900DB49F900D5D
:100FA000A49F800D911D11240895AA1BBB1B51E124
:100FB00007C0AA1FBB1FA617B70710F0A61BB70BC9
:100FC000881F991F5A95A9F780959095BC01CD016E
:100FD0000895EE0FFF1F0590F491E02D0994A29F54
:100FE000B001B39FC001A39F700D811D1124911DFD
:100FF000B29F700D811D1124911D0895F894FFCFAB
:1010000005000000000087058705870563005F0075
:1010100087000000000009045404870563005F0096
:101020008700870500000000090454040C036300D6
:101030005F0087001103000000000904540414023B
:0810400063005F008700190244
:00000001FF
