:100000000C9435000C945D000C945D000C945D0024
:100010000C945D000C945D000C945D000C945D00EC
:100020000C945D000C945D000C945D000C945D00DC
:100030000C945D000C945D000C945D000C945D00CC
:100040000C94A5040C945D000C945D000C945D0070
:100050000C945D000C945D000C945D000C945D00AC
:100060000C945D000C945D00A00711241FBECFEF1F
:10007000D8E0DEBFCDBF11E0A0E0B1E0EAEAF0E1F8
:1000800002C005900D92A834B107D9F721E0A8E489
:10009000B1E001C01D92A43DB207E1F710E0CAE64D
:1000A000D0E004C02297FE010E944008C836D10764
:1000B000C9F70E948D050C94B7070C94000040917D
:1000C00000015091010125E038E0429FC001439FAB
:1000D000900D529F900D1124875E994C90930101D1
:1000E00080930001890F0895FC0185859685089508
:1000F000CF93DF9300D000D000D0CDB7DEB7AB01F7
:100100001C821D821E82DC01ED91FC910190F08128
:10011000E02D19821A821B829E012F5F3F4FBE0184
:100120006C5F7F4F099526960FB6F894DEBF0FBE21
:10013000CDBFDF91CF91089580E090E00895CF92F8
:10014000DF92EF92FF920F931F93CF93DF9300D034
:100150001F92CDB7DEB709E411E00E945F009CE278
:10016000899F90011124D8012C91231B08F420E0D1
:10017000F80121938F01F1E006351F0771F7E4E5DF
:10018000F1E026E531E003E010E08081429190E06B
:10019000840F911D840F911DB8010E94DE07D901C3
:1001A0006E939D01B1E0E934FB0779F70E945F008F
:1001B0008837E8F40E945F00E7E08E9FC0011124B9
:1001C000092F112707FD1A950E945F00FFE58F9FF9
:1001D000C001112430EA390FF801E75BFE4F20819E
:1001E000230F08F42FEFF801E75BFE4F208339E47B
:1001F000E32E31E0F32E00E010E04CE0C42ED12CD1
:10020000D7016D917D01CE0101960E949A058091E2
:10021000AF01882321F0C601801B910B01C0C801EA
:10022000FC01EE0FFF1FE80FF91FE857FE4F898111
:1002300080838A8181838B8182830F5F1F4F0D3082
:100240001105F1F60F900F900F90DF91CF911F9154
:100250000F91FF90EF90DF90CF9008950E949F0044
:100260006091C70187EC91E00E945B0649E150E094
:1002700060E070E087EC91E00C94ED06FC0186E014
:1002800091E091838083138212828FEF868387832C
:10029000808781878287838781E084871686158699
:1002A000158214828091C5019091C601892B21F499
:1002B000F093C601E093C501A091C301B091C401C0
:1002C000109721F01596FC93EE931497F093C401C8
:1002D000E093C30186E191E091838083089568EB08
:1002E0007BE080E090E00E941E05809180018111FA
:1002F00018C080E891E00E947F05892B91F087E685
:1003000091E00E943E0188E291E090936801809321
:100310006701109277011092760180E891E00E94C7
:10032000880520E030E04DE050E068E871E087E6C5
:1003300091E00E946507FC018FEF868380EB878345
:1003400080EF808780917801811118C088E791E063
:100350000E947F05892B91F086E591E00E943E0185
:100360008AE391E0909357018093560110926601C1
:100370001092650188E791E00E94880520E030E056
:100380004DE050E068E871E086E591E00E94650785
:10039000FC018FEF868380EB878380EF808788EC7A
:1003A0008093C701089587FF02C02A9A01C02A9846
:1003B0002B9A2B9886FF02C02A9A01C02A982B9A62
:1003C0002B9885FF02C02A9A01C02A982B9A2B9855
:1003D00084FF02C02A9A01C02A982B9A2B9883FF87
:1003E00002C02A9A01C02A982B9A2B9882FF02C039
:1003F0002A9A01C02A982B9A2B9881FF02C02A9A28
:1004000001C02A982B9A2B9880FF02C02A9A01C01B
:100410002A982B9A2B980895DC018D919C91009736
:1004200039F0DC01ED91FC910280F381E02D09941B
:100430000895229A239A0F960C940C020F931F93FF
:10044000CF93DF93EB018C01015F1F4FDC011F96FF
:100450008D919C915097009739F0DC01ED91FC91C2
:100460000190F081E02D099580E00E94D30180E0A9
:100470000E94D30180E00E94D30180E00E94D3015A
:100480008C819D81181619060CF064C08FEF0E94B4
:10049000D301E881F9818181882339F02F81382FB8
:1004A000320F08F43FEF832F01C080E02D85382FF5
:1004B000329F030E30E0311D1124832F0E94D3019F
:1004C000E881F9818081882339F02E81382F320F1D
:1004D00008F43FEF832F01C080E02C85382F329F36
:1004E000030E30E0311D1124832F0E94D301E881D7
:1004F000F9818281882339F02885382F320F08F45A
:100500003FEF832F01C080E02E85382F329F030EEE
:1005100030E0311D1124832F0E94D30189859E81F3
:10052000891B8E838A859F81891B8F838B85988504
:10053000891B88878F8528813981280F311D87FD88
:100540003A95398328832C813D81215031093D839F
:100550002C8396CF2A813B8137FF02C0215E3F4F1B
:10056000E90165E0D595C7956A95E1F78FEF0E949F
:10057000D30180E00E94D30180E00E94D30180E09B
:100580000E94D301219790F7C801DF91CF911F916D
:100590000F910C940C0287FF02C02C9A01C02C987A
:1005A0002B9A2B9886FF02C02C9A01C02C982B9A6C
:1005B0002B9885FF02C02C9A01C02C982B9A2B985F
:1005C00084FF02C02C9A01C02C982B9A2B9883FF91
:1005D00002C02C9A01C02C982B9A2B9882FF02C043
:1005E0002C9A01C02C982B9A2B9881FF02C02C9A30
:1005F00001C02C982B9A2B9880FF02C02C9A01C026
:100600002C982B9A2B980895DC018D919C91009742
:1006100039F0DC01ED91FC910280F381E02D099429
:100620000895249A239A0F960C9404030F931F9312
:10063000CF93DF93EB018C01015F1F4FDC011F960D
:100640008D919C915097009739F0DC01ED91FC91D0
:100650000190F081E02D099580E00E94CB0280E0BE
:100660000E94CB0280E00E94CB0280E00E94CB027D
:100670008C819D81181619060CF064C08FEF0E94C2
:10068000CB02E881F9818181882339F02F81382FCD
:10069000320F08F43FEF832F01C080E02D85382F03
:1006A000329F030E30E0311D1124832F0E94CB02B4
:1006B000E881F9818081882339F02E81382F320F2B
:1006C00008F43FEF832F01C080E02C85382F329F44
:1006D000030E30E0311D1124832F0E94CB02E881EC
:1006E000F9818281882339F02885382F320F08F468
:1006F0003FEF832F01C080E02E85382F329F030EFD
:1007000030E0311D1124832F0E94CB0289859E8108
:10071000891B8E838A859F81891B8F838B85988512
:10072000891B88878F8528813981280F311D87FD96
:100730003A95398328832C813D81215031093D83AD
:100740002C8396CF2A813B8137FF02C0215E3F4F29
:10075000E90175E0D595C7957A95E1F78FEF0E948D
:10076000CB0280E00E94CB0280E00E94CB0280E0BE
:100770000E94CB02219790F7C801DF91CF911F9182
:100780000F910C940403FC01118A108A0895FF92C2
:100790000F931F93CF93DF93EC01809148018F5FFC
:1007A000982F97709093480180FD02C080E001C0AF
:1007B00080E891FD8064947009F08062E0E1FE2E93
:1007C000F80E20E030E000E011E0FE01E20FF31F40
:1007D0006485662331F070E0C8010E94DE076F5F18
:1007E00001C060E061874F2D469F040E40E0411D2F
:1007F0001124411102C0168202C041504683662373
:1008000011F0615061872F5F3F4F23303105E9F6CA
:10081000DF91CF911F910F91FF900895EF92FF927A
:100820000F931F93CF93DF93CDB7DEB762970FB6C9
:10083000F894DEBF0FBECDBF8C017A01F901DC0157
:100840001C968C917A8369835C834B835E834D8392
:1008500090819D8791819E8792819F87813029F425
:10086000CE0101960E94C70306C01C861B861A860D
:10087000198618861F82188AB701CE0101960E9438
:10088000C303D801ED91FC910484F585E02DBE01F0
:100890006F5F7F4FC801099562960FB6F894DEBF6F
:1008A0000FBECDBFDF91CF911F910F91FF90EF90C1
:1008B0000895EF92FF920F931F93CF93DF93CDB7DD
:1008C000DEB762970FB6F894DEBF0FBECDBF8C01C6
:1008D0007A01F901DC011C968C917A8369835C832F
:1008E0004B835E834D8390819D8791819E8792810A
:1008F0009F87813029F4CE0101960E94C70306C06C
:100900001C861B861A86198618861F8283E0888BB0
:10091000B701CE0101960E94C303D801ED91FC916D
:100920000484F585E02DBE016F5F7F4FC8010995F6
:1009300062960FB6F894DEBF0FBECDBFDF91CF91A8
:100940001F910F91FF90EF9008951F920F920FB695
:100950000F9211242F933F938F939F93AF93BF9345
:100960008091B1019091B201A091B301B091B40115
:100970003091B00123E0230F2D3720F40196A11D03
:10098000B11D05C026E8230F0296A11DB11D2093BD
:10099000B0018093B1019093B201A093B301B093E1
:1009A000B4018091B5019091B601A091B701B091C9
:1009B000B8010196A11DB11D8093B5019093B601B8
:1009C000A093B701B093B801BF91AF919F918F9160
:1009D0003F912F910F900FBE0F901F9018952FB73A
:1009E000F8946091B1017091B2018091B30190913E
:1009F000B4012FBF08953FB7F8948091B50190914D
:100A0000B601A091B701B091B80126B5A89B05C069
:100A10002F3F19F00196A11DB11D3FBF6627782F0A
:100A2000892F9A2F620F711D811D911D42E0660F63
:100A3000771F881F991F4A95D1F70895CF92DF92AB
:100A4000EF92FF92CF93DF936B017C010E94FB0436
:100A5000EB01C114D104E104F10479F00E94FB041C
:100A60006C1B7D0B683E7340A0F381E0C81AD1086F
:100A7000E108F108C851DC4FECCFDF91CF91FF9036
:100A8000EF90DF90CF900895789484B5826084BD14
:100A900084B5816084BD85B5826085BD85B5816082
:100AA00085BDEEE6F0E0808181608083E1E8F0E0E2
:100AB0001082808182608083808181608083E0E811
:100AC000F0E0808181608083E1EBF0E080818460F0
:100AD0008083E0EBF0E0808181608083EAE7F0E0F2
:100AE0008081846080838081826080838081816056
:100AF00080838081806880831092C1000895FC010A
:100B000081E090E02081222311F080E090E00895C0
:100B100021E0FC012083089508950E9444050E946D
:100B20006F01C0E0D0E00E942E012097E1F30E9407
:100B30000000F9CFFC0120E030EC662329F0639F30
:100B4000212D112431112F5F822F880F880F27FF4D
:100B500005C09FEF90839183828309C026FF04C064
:100B60009FEF9083818302C0808311821282CF0124
:100B700008958F929F92AF92BF92EF92FF920F9340
:100B80001F93CF93DF93EC01188219821A824423BA
:100B9000B9F1E0E0F0E08B010A5F1F4F7B0189E0D3
:100BA000E80EF11C842E912CA12CB12CD801AE0F93
:100BB000BF1F2C91D701AE0FBF1F6C912223E1F014
:100BC0006623D1F030E040E050E02F5F3F4F4F4FC1
:100BD0005F4F70E080E090E06F5F7F4F8F4F9F4FDF
:100BE0000E94BA079B01AC01C501B4010E94BA077B
:100BF000DE01AE0FBF1F8C933196E330F105B1F6E5
:100C0000CE01DF91CF911F910F91FF90EF90BF9098
:100C1000AF909F908F900895CF92DF92EF92FF92C6
:100C2000CF93DF93EC018091BD019091BE019C01B7
:100C30002F5F3F4F3093BE012093BD01861797076A
:100C40009CF10E94EF049B01AC01E091BD01F09189
:100C5000BE0188EE93E0E89FB001E99F700DF89F18
:100C6000700D1124882777FD8095982FC090B901C9
:100C7000D090BA01E090BB01F090BC012C193D0965
:100C80004E095F090E94F2073A8329831092BE0140
:100C90001092BD010E94EF046093B9017093BA01F4
:100CA0008093BB019093BC01DF91CF91FF90EF90B7
:100CB000DF90CF9008958F929F92AF92BF92EF9264
:100CC000FF920F931F93CF93DF9300D01F92CDB766
:100CD000DEB78C01F62EF80183819481A581B6815F
:100CE000892B8A2B8B2BD1F00E94FB048090BF01B3
:100CF0009090C001A090C101B090C201681979091B
:100D00008A099B09D80113968D909D90AD90BC9057
:100D10001697681579058A059B05E8F20E94FB0481
:100D20006093BF017093C0018093C1019093C20191
:100D3000D8011B96ED91FC911C97309751F0D8018A
:100D400017964D915D916D917C911A978F2D099514
:100D5000F82EA090C501B090C601A114B10451F1C4
:100D6000F501E484D80111968D919C9112978436F7
:100D7000910508F41486D501ED91FC918280938051
:100D80004F2DB501CE0101960E94B905F5014585AB
:100D90005685628173819E012F5F3F4FC501F4012B
:100DA0000995D5011C96EC921C971496AD90BC90B9
:100DB0001597D3CF69E170E0C8010E940C060F902F
:100DC0000F900F90DF91CF911F910F91FF90EF90B7
:100DD000BF90AF909F908F9008958F929F92AF9207
:100DE000BF92CF92DF92EF92FF92CF93DF93EC010D
:100DF0006A017B010E94EF044B015C0161E070E03D
:100E000080E090E00E941E056881CE010E945B0692
:100E10000E94EF04681979098A099B096C157D0500
:100E20008E059F0558F3DF91CF91FF90EF90DF90F3
:100E3000CF90BF90AF909F908F900895CF92DF9208
:100E4000EF92FF920F931F93CF93DF93EC01442314
:100E5000F1F06115710581F19B0140E050E060E423
:100E600072E48FE090E00E941408CB80DC80ED807B
:100E7000FE8089019A010C151D052E053F0510F411
:100E8000970186010B831C832D833E8315C061155A
:100E9000710571F09B0140E050E060E472E48FE086
:100EA00090E00E9414082B833C834D835E8304C032
:100EB0001B821C821D821E82DF91CF911F910F9198
:100EC000FF90EF90DF90CF900895CF92DF92EF9256
:100ED000FF920F931F93CF93DF93EC016B018A0175
:100EE0007901121613061CF07A0100E010E0E88187
:100EF000F9810480F581E02DCE010995C801880FA4
:100F0000991F800F911F8C0D9D1D9B838A83FE86E8
:100F1000ED86E881F9810284F385E02DCE01099503
:100F200041E0BC0187EC91E00E941E07CE01DF91F9
:100F3000CF911F910F91FF90EF90DF90CF90089588
:100F40008FEF8093C7011092C9011092C8011092CF
:100F5000D3011092D2018FEF9FEFDC018093CE017D
:100F60009093CF01A093D001B093D1010895F8944C
:100F70000C945308DB018F939F930E943308BF9119
:100F8000AF91A29F800D911DA39F900DB29F900DD8
:100F900011240895AA1BBB1B51E107C0AA1FBB1F48
:100FA000A617B70710F0A61BB70B881F991F5A95F5
:100FB000A9F780959095BC01CD01089597FB072E68
:100FC00016F4009407D077FD09D00E94CA0707FCE9
:100FD00005D03EF4909581959F4F08957095619549
:100FE0007F4F0895A1E21A2EAA1BBB1BFD010DC065
:100FF000AA1FBB1FEE1FFF1FA217B307E407F507C9
:1010000020F0A21BB30BE40BF50B661F771F881FA4
:10101000991F1A9469F760957095809590959B013A
:10102000AC01BD01CF010895052E97FB1EF400947D
:101030000E942B0857FD07D00E94F20707FC03D03F
:101040004EF40C942B0850954095309521953F4FC8
:101050004F4F5F4F089590958095709561957F4FA4
:101060008F4F9F4F08950E944408A59F900DB49FF5
:10107000900DA49F800D911D11240895EE0FFF1F68
:101080000590F491E02D0994A29FB001B39FC00197
:10109000A39F700D811D1124911DB29F700D811DA4
:0A10A0001124911D0895F894FFCF6C
:1010AA003905000000008C058C058C057800740059
:1010BA009C00000000000E0459048C05780074009E
:1010CA009C008C05000000000E04590411037800EE
:1010DA0074009C001603000000000E045904190253
:0810EA00780074009C001E0256
:00000001FF
