:100000000C9435000C945D000C945D000C945D0024
:100010000C945D000C945D000C945D000C945D00EC
:100020000C945D000C945D000C945D000C945D00DC
:100030000C945D000C945D000C945D000C945D00CC
:100040000C94F7040C945D000C945D000C945D001E
:100050000C945D000C945D000C945D000C945D00AC
:100060000C945D000C945D00A20711241FBECFEF1D
:10007000D8E0DEBFCDBF11E0A0E0B1E0EEEAF0E1F4
:1000800002C005900D92A634B107D9F721E0A6E48D
:10009000B1E001C01D92AA3FB207E1F710E0CAE645
:1000A000D0E004C02297FE010E944208C836D10762
:1000B000C9F70E94DF050C94B9070C940000FC01FD
:1000C000858596850895CF93DF9300D000D000D02A
:1000D000CDB7DEB7AB011C821D821E82DC01ED9123
:1000E000FC910190F081E02D19821A821B829E0101
:1000F0002F5F3F4FBE016C5F7F4F099526960FB66D
:10010000F894DEBF0FBECDBFDF91CF91089580E0A0
:1001100090E00895FB012081328130832283DC014D
:100120003C93318111963C93119712962C9308952C
:10013000AF92BF92CF92DF92EF92FF920F931F93F5
:10014000CF93DF9300D000D000D0CDB7DEB70CEA5C
:1001500011E085E8E82E81E0F82EA12CB12CC12C0D
:10016000D12C80917C018C8380917D018D83809145
:100170007E018E83BE016C5F7F4FCE0101960E948F
:100180008A008981F80180838A81F501E455FE4F58
:1001900081838B81828380917C018C8380917D011E
:1001A0008D8380917E018E83BE016C5F7F4FCE0177
:1001B00001960E948A008981F70180838A81F50176
:1001C000EB57FE4F81838B818283C114D104A1F14F
:1001D0008091D3018C838091D4018D838091D5014E
:1001E0008E83BE016C5F7F4FCE0101960E948A0014
:1001F0008981F801339780838A81319680838B814E
:10020000319680838091D3018C838091D4018D833A
:100210008091D5018E83BE016C5F7F4FCE01019628
:100220000E948A008981F701339780838A81319601
:1002300080838B81319680836091ED018DEE91E01A
:100240000E948E0662E370E080E090E00E947005FC
:10025000FFEFCF1ADF0A83E0A80EB11C0D5F1F4F1E
:10026000E3E0EE0EF11CFDE0CF16D10409F079CFEA
:100270008091D3018C838091D4018D838091D501AD
:100280008E83BE016C5F7F4FCE0101960E948A0073
:1002900089818093D0018A818093D1018B81809361
:1002A000D2018091D3018C838091D4018D83809180
:1002B000D5018E83BE016C5F7F4FCE0101960E94F7
:1002C0008A0089818093A9018A818093AA018B8108
:1002D0008093AB016091ED018DEE91E00E948E065E
:1002E00026960FB6F894DEBF0FBECDBFDF91CF913B
:1002F0001F910F91FF90EF90DF90CF90BF90AF9044
:100300000895FC0184E091E091838083138212823E
:100310008FEF86838783808781878287838781E0C9
:10032000848716861586158214828091EB01909140
:10033000EC01892B21F4F093EC01E093EB01A09107
:10034000E901B091EA01109721F01596FC93EE9324
:100350001497F093EA01E093E90184E191E091833D
:100360008083089580917101811118C081E791E027
:100370000E94D105892B91F088E591E00E948101CE
:1003800086E291E0909359018093580110926801A0
:100390001092670181E791E00E94DA0520E030E0E9
:1003A0004DE050E06CEA71E088E591E00E9467075B
:1003B00080916901811118C089E691E00E94D10500
:1003C000892B91F087E491E00E94810188E391E01C
:1003D0009093480180934701109257011092560163
:1003E00089E691E00E94DA0520E030E04DE050E03F
:1003F00065E871E087E491E00E9467071092D301FD
:100400001092D4011092D5018FEF80937901109250
:100410007A0110927B0110927C0110927D0180E89C
:1004200080937E018AE880937F018BE28093800134
:1004300082EE8093810184E68093820185E9809336
:1004400083018DEE80938401089587FF02C02A9A6C
:1004500001C02A982B9A2B9886FF02C02A9A01C0C5
:100460002A982B9A2B9885FF02C02A9A01C02A98B5
:100470002B9A2B9884FF02C02A9A01C02A982B9AA3
:100480002B9883FF02C02A9A01C02A982B9A2B9896
:1004900082FF02C02A9A01C02A982B9A2B9881FFCA
:1004A00002C02A9A01C02A982B9A2B9880FF02C07A
:1004B0002A9A01C02A982B9A2B980895DC018D91D5
:1004C0009C91009739F0DC01ED91FC910280F38161
:1004D000E02D09940895229A239A0F960C945E02B7
:1004E0000F931F93CF93DF93EB018C01015F1F4F9D
:1004F000DC011F968D919C915097009739F0DC019B
:10050000ED91FC910190F081E02D099580E00E9431
:10051000250280E00E94250280E00E94250280E002
:100520000E9425028C819D81181619060CF064C06A
:100530008FEF0E942502E881F9818081882339F0BC
:100540002E81382F320F08F43FEF832F01C080E057
:100550002C85382F329F030E30E0311D1124832F5C
:100560000E942502E881F9818181882339F02F8159
:10057000382F320F08F43FEF832F01C080E02D8524
:10058000382F329F030E30E0311D1124832F0E943B
:100590002502E881F9818281882339F02885382F66
:1005A000320F08F43FEF832F01C080E02E85382FF3
:1005B000329F030E30E0311D1124832F0E9425024B
:1005C00089859E81891B8E838A859F81891B8F8364
:1005D0008B859885891B88878F8528813981280F8D
:1005E000311D87FD3A95398328832C813D81215027
:1005F00031093D832C8396CF2A813B8137FF02C08E
:10060000215E3F4FE90195E0D595C7959A95E1F7B1
:100610008FEF0E94250280E00E94250280E00E9468
:10062000250280E00E942502219790F7C801DF9102
:10063000CF911F910F910C945E0287FF02C02C9AFC
:1006400001C02C982B9A2B9886FF02C02C9A01C0CF
:100650002C982B9A2B9885FF02C02C9A01C02C98BD
:100660002B9A2B9884FF02C02C9A01C02C982B9AAD
:100670002B9883FF02C02C9A01C02C982B9A2B98A0
:1006800082FF02C02C9A01C02C982B9A2B9881FFD4
:1006900002C02C9A01C02C982B9A2B9880FF02C084
:1006A0002C9A01C02C982B9A2B980895DC018D91DF
:1006B0009C91009739F0DC01ED91FC910280F3816F
:1006C000E02D09940895249A239A0F960C945603CA
:1006D0000F931F93CF93DF93EB018C01015F1F4FAB
:1006E000DC011F968D919C915097009739F0DC01A9
:1006F000ED91FC910190F081E02D099580E00E9440
:100700001D0380E00E941D0380E00E941D0380E025
:100710000E941D038C819D81181619060CF064C07F
:100720008FEF0E941D03E881F9818081882339F0D1
:100730002E81382F320F08F43FEF832F01C080E065
:100740002C85382F329F030E30E0311D1124832F6A
:100750000E941D03E881F9818181882339F02F816E
:10076000382F320F08F43FEF832F01C080E02D8532
:10077000382F329F030E30E0311D1124832F0E9449
:100780001D03E881F9818281882339F02885382F7B
:10079000320F08F43FEF832F01C080E02E85382F01
:1007A000329F030E30E0311D1124832F0E941D0360
:1007B00089859E81891B8E838A859F81891B8F8372
:1007C0008B859885891B88878F8528813981280F9B
:1007D000311D87FD3A95398328832C813D81215035
:1007E00031093D832C8396CF2A813B8137FF02C09C
:1007F000215E3F4FE90125E0D595C7952A95E1F7A0
:100800008FEF0E941D0380E00E941D0380E00E9484
:100810001D0380E00E941D03219790F7C801DF911E
:10082000CF911F910F910C945603FC01118A108AED
:100830000895FF920F931F93CF93DF93EC01809164
:1008400046018F5F982F97709093460180FD02C0FC
:1008500080E001C080E891FD8064947009F08062BE
:1008600030E1F32EF80E20E030E000E011E0FE0170
:10087000E20FF31F6485662331F070E0C8010E9427
:10088000CC076F5F01C060E061874F2D469F040E6B
:1008900040E0411D1124411102C0168202C04150A6
:1008A0004683662311F0615061872F5F3F4F2330ED
:1008B0003105E9F6DF91CF911F910F91FF900895D7
:1008C000EF92FF920F931F93CF93DF93CDB7DEB7D5
:1008D00062970FB6F894DEBF0FBECDBF8C017A01D0
:1008E000F901DC011C968C917A8369835C834B83CC
:1008F0005E834D8390819D8791819E8792819F87A2
:10090000813029F4CE0101960E94190406C01C868C
:100910001B861A86198618861F82188AB701CE018F
:1009200001960E941504D801ED91FC910484F5858F
:10093000E02DBE016F5F7F4FC801099562960FB62B
:10094000F894DEBF0FBECDBFDF91CF911F910F9105
:10095000FF90EF900895EF92FF920F931F93CF9324
:10096000DF93CDB7DEB762970FB6F894DEBF0FBE48
:10097000CDBF8C017A01F901DC011C968C917A8340
:1009800069835C834B835E834D8390819D879181D6
:100990009E8792819F87813029F4CE0101960E9423
:1009A000190406C01C861B861A86198618861F82A3
:1009B00083E0888BB701CE0101960E941504D8010F
:1009C000ED91FC910484F585E02DBE016F5F7F4FB2
:1009D000C801099562960FB6F894DEBF0FBECDBF71
:1009E000DF91CF911F910F91FF90EF9008951F928B
:1009F0000F920FB60F9211242F933F938F939F93D3
:100A0000AF93BF938091D7019091D801A091D90164
:100A1000B091DA013091D60123E0230F2D3720F475
:100A20000196A11DB11D05C026E8230F0296A11D48
:100A3000B11D2093D6018093D7019093D801A09344
:100A4000D901B093DA018091DB019091DC01A09192
:100A5000DD01B091DE010196A11DB11D8093DB0186
:100A60009093DC01A093DD01B093DE01BF91AF91C3
:100A70009F918F913F912F910F900FBE0F901F90DC
:100A800018952FB7F8946091D7017091D801809193
:100A9000D9019091DA012FBF08953FB7F894809162
:100AA000DB019091DC01A091DD01B091DE0126B562
:100AB000A89B05C02F3F19F00196A11DB11D3FBF96
:100AC0006627782F892F9A2F620F711D811D911D26
:100AD00042E0660F771F881F991F4A95D1F7089546
:100AE000CF92DF92EF92FF92CF93DF936B017C0165
:100AF0000E944D05EB01C114D104E104F10479F029
:100B00000E944D056C1B7D0B683E7340A0F381E095
:100B1000C81AD108E108F108C851DC4FECCFDF91C9
:100B2000CF91FF90EF90DF90CF900895789484B5A7
:100B3000826084BD84B5816084BD85B5826085BDD9
:100B400085B5816085BDEEE6F0E0808181608083BF
:100B5000E1E8F0E0108280818260808380818160A2
:100B60008083E0E8F0E0808181608083E1EBF0E069
:100B7000808184608083E0EBF0E08081816080830D
:100B8000EAE7F0E0808184608083808182608083F6
:100B90008081816080838081806880831092C10021
:100BA0000895FC0181E090E02081222311F080E093
:100BB00090E0089521E0FC012083089508950E94AB
:100BC00096050E94B201C0E0D0E00E9498002097F4
:100BD000E1F30E940000F9CF8F929F92AF92BF92F3
:100BE000EF92FF920F931F93CF93DF93EC01188244
:100BF00019821A824423B9F1E0E0F0E08B010A5F28
:100C00001F4F7B0189E0E80EF11C842E912CA12C52
:100C1000B12CD801AE0FBF1F2C91D701AE0FBF1F53
:100C20006C912223E1F06623D1F030E040E050E007
:100C30002F5F3F4F4F4F5F4F70E080E090E06F5F5E
:100C40007F4F8F4F9F4F0E94BC079B01AC01C50196
:100C5000B4010E94BC07DE01AE0FBF1F8C9331961A
:100C6000E330F105B1F6CE01DF91CF911F910F91E5
:100C7000FF90EF90BF90AF909F908F900895CF928C
:100C8000DF92EF92FF92CF93DF93EC018091E3012B
:100C90009091E4019C012F5F3F4F3093E40120933A
:100CA000E301861797079CF10E9441059B01AC0167
:100CB000E091E301F091E40188EE93E0E89FB00158
:100CC000E99F700DF89F700D1124882777FD80959E
:100CD000982FC090DF01D090E001E090E101F0900A
:100CE000E2012C193D094E095F090E94E0073A8391
:100CF00029831092E4011092E3010E944105609360
:100D0000DF017093E0018093E1019093E201DF91B4
:100D1000CF91FF90EF90DF90CF9008958F929F92A8
:100D2000AF92BF92EF92FF920F931F93CF93DF93F7
:100D300000D01F92CDB7DEB78C01F62EF80183816B
:100D40009481A581B681892B8A2B8B2BD1F00E94AF
:100D50004D058090E5019090E601A090E701B090EC
:100D6000E801681979098A099B09D80113968D90C1
:100D70009D90AD90BC901697681579058A059B05E6
:100D8000E8F20E944D056093E5017093E6018093BF
:100D9000E7019093E801D8011B96ED91FC911C9717
:100DA000309751F0D80117964D915D916D917C91DE
:100DB0001A978F2D0995F82EA090EB01B090EC01B9
:100DC000A114B10451F1F501E484D80111968D917B
:100DD0009C9112978436910508F41486D501ED9103
:100DE000FC91828093804F2DB501CE0101960E9427
:100DF000EC05F50145855685628173819E012F5F63
:100E00003F4FC501F4010995D5011C96EC921C9742
:100E10001496AD90BC901597D3CF69E170E0C801EE
:100E20000E943F060F900F900F90DF91CF911F917E
:100E30000F91FF90EF90BF90AF909F908F9008958B
:100E4000CF92DF92EF92FF920F931F93CF93DF9396
:100E5000EC014423F1F06115710581F19B0140E043
:100E600050E060E472E48FE090E00E940208CB80E2
:100E7000DC80ED80FE8089019A010C151D052E0590
:100E80003F0510F4970186010B831C832D833E835D
:100E900015C06115710571F09B0140E050E060E400
:100EA00072E48FE090E00E9402082B833C834D8324
:100EB0005E8304C01B821C821D821E82DF91CF9143
:100EC0001F910F91FF90EF90DF90CF900895CF92F8
:100ED000DF92EF92FF920F931F93CF93DF93EC017A
:100EE0006B018A017901121613061CF07A0100E0E9
:100EF00010E0E881F9810480F581E02DCE010995AB
:100F0000C801880F991F800F911F8C0D9D1D9B8319
:100F10008A83FE86ED86E881F9810284F385E02DDF
:100F2000CE01099541E0BC018DEE91E00E942007C1
:100F3000CE01DF91CF911F910F91FF90EF90DF9045
:100F4000CF9008958FEF8093ED011092EF011092F2
:100F5000EE011092F9011092F8018FEF9FEFDC0182
:100F60008093F4019093F501A093F601B093F701FB
:100F70000895F8940C945508DB018F939F930E9479
:100F80002108BF91AF91A29F800D911DA39F900D4D
:100F9000B29F900D1124089597FB072E16F400942C
:100FA00007D077FD09D00E942C0807FC05D03EF43D
:100FB000909581959F4F0895709561957F4F089505
:100FC000A1E21A2EAA1BBB1BFD010DC0AA1FBB1F4D
:100FD000EE1FFF1FA217B307E407F50720F0A21BBF
:100FE000B30BE40BF50B661F771F881F991F1A942C
:100FF00069F760957095809590959B01AC01BD0156
:10100000CF010895052E97FB1EF400940E94190845
:1010100057FD07D00E94E00707FC03D04EF40C9464
:10102000190850954095309521953F4F4F4F5F4F90
:10103000089590958095709561957F4F8F4F9F4F44
:1010400008950E944608A59F900DB49F900DA49FFF
:10105000800D911D11240895AA1BBB1B51E107C0EF
:10106000AA1FBB1FA617B70710F0A61BB70B881F38
:10107000991F5A95A9F780959095BC01CD010895C7
:10108000EE0FFF1F0590F491E02D0994A29FB0018F
:10109000B39FC001A39F700D811D1124911DB29FAC
:0E10A000700D811D1124911D0895F894FFCF4D
:1010AE0000000000DE05DE05DE0563005F00870040
:1010BE00000000006004AB04DE0563005F008700E3
:1010CE00DE05000000006004AB04630363005F00F4
:1010DE0087006803000000006004AB046B0263002D
:0610EE005F0087007002A4
:00000001FF
