:100000000C9435000C945D000C945D000C945D0024
:100010000C945D000C945D000C945D000C945D00EC
:100020000C945D000C945D000C945D000C945D00DC
:100030000C945D000C945D000C945D000C945D00CC
:100040000C9455060C945D000C945D000C945D00BE
:100050000C945D000C945D000C945D000C945D00AC
:100060000C945D000C945D00000911241FBECFEFBD
:10007000D8E0DEBFCDBF11E0A0E0B1E0EAE6F3E1F9
:1000800002C005900D92A634B107D9F721E0A6E48D
:10009000B1E001C01D92AE3FB207E1F710E0CAE641
:1000A000D0E004C02297FE010E94A009C836D10703
:1000B000C9F70E943D070C9417090C940000FC013D
:1000C000858596850895CF93DF9300D000D000D02A
:1000D000CDB7DEB7AB011C821D821E82DC01ED9123
:1000E000FC910190F081E02D19821A821B829E0101
:1000F0002F5F3F4FBE016C5F7F4F099526960FB66D
:10010000F894DEBF0FBECDBFDF91CF91089580E0A0
:1001100090E00895FC0160810C94EC07FB012081C4
:10012000328130832283DC013C93318111963C93F0
:10013000119712962C930895CF92DF92EF92FF922F
:100140000F931F93CF93DF9300D000D000D0CDB793
:10015000DEB780917901C12CD12C0CE010E0811127
:100160000DC180917D018C8380917E018D83809172
:100170007F018E83BE016C5F7F4FCE0101960E948E
:100180008E00C60180559E4F7C018981F70184A3B2
:100190008A8185A38B8186A30C301105B9F08091EB
:1001A000D7018C838091D8018D838091D9018E8372
:1001B000BE016C5F7F4FCE0101960E948E00898147
:1001C000F70187A38A8180A78B8181A781EF91E0C6
:1001D0000E948A0062E370E080E090E00E94CE0618
:1001E00001501109F3E0CF1AD1080115110509F0EA
:1001F000B8CF8091D7018C838091D8018D83809175
:10020000D9018E83BE016C5F7F4FCE0101960E94A3
:100210008E0089818093B3018A818093B4018B81A0
:100220008093B50180917D018C8380917E018D83C7
:1002300080917F018E83BE016C5F7F4FCE0101965E
:100240000E948E0089818093B0018A818093B101E0
:100250008B818093B20181EF91E00E948A0062E37A
:1002600070E080E090E00E94CE068091D7018C8300
:100270008091D8018D838091D9018E83BE016C5FFE
:100280007F4FCE0101960E948E0089818093B0013C
:100290008A818093B1018B818093B20181EF91E0DB
:1002A0000E948A0099E8E92E91E0F92E80917D0163
:1002B0008C8380917E018D8380917F018E83BE012E
:1002C0006C5F7F4FCE0101960E948E008981F701FD
:1002D00080838A8181838B81828301151105D1F00E
:1002E0008091D7018C838091D8018D838091D90131
:1002F0008E83BE016C5F7F4FCE0101960E948E00FF
:100300008981F701339780838A81319680838B813D
:100310003196808381EF91E00E948A0062E370E071
:1003200080E090E00E94CE060F5F1F4FF3E0EF0EDB
:10033000F11C0D30110509F0B9CF8091D7018C83E4
:100340008091D8018D838091D9018E83BE016C5F2D
:100350007F4FCE0101960E948E0089818093AD016E
:100360008A818093AE018B818093AF0181EF91E010
:100370000E948A0081E0809379010BC180917D0108
:100380008C8380917E018D8380917F018E83BE015D
:100390006C5F7F4FCE0101960E948E00C601875789
:1003A0009E4F7C018981F70184A38A8185A38B817B
:1003B00086A30C301105B9F08091D7018C83809110
:1003C000D8018D838091D9018E83BE016C5F7F4FF0
:1003D000CE0101960E948E008981F70187A38A8150
:1003E00080A78B8181A781EF91E00E948A0062E360
:1003F00070E080E090E00E94CE0601501109F3E029
:10040000CF1AD1080115110509F0B8CF8091D70195
:100410008C838091D8018D838091D9018E83BE0118
:100420006C5F7F4FCE0101960E948E008981809380
:100430008C018A8180938D018B8180938E018091C4
:100440007D018C8380917E018D8380917F018E83DD
:10045000BE016C5F7F4FCE0101960E948E008981A4
:10046000809389018A8180938A018B8180938B019B
:1004700081EF91E00E948A0062E370E080E090E00A
:100480000E94CE068091D7018C838091D8018D8304
:100490008091D9018E83BE016C5F7F4FCE010196A2
:1004A0000E948E008981809389018A8180938A01CC
:1004B0008B8180938B0181EF91E00E948A0080EB19
:1004C000E82E81E0F82E80917D018C8380917E0161
:1004D0008D8380917F018E83BE016C5F7F4FCE0143
:1004E00001960E948E008981F70180838A81818331
:1004F0008B81828301151105D1F08091D7018C8306
:100500008091D8018D838091D9018E83BE016C5F6B
:100510007F4FCE0101960E948E008981F7013397AB
:1005200080838A81319680838B813196808381EFAD
:1005300091E00E948A0062E370E080E090E00E9417
:10054000CE060F5F1F4FF3E0EF0EF11C0D301105CB
:1005500009F0B9CF8091D7018C838091D8018D8328
:100560008091D9018E83BE016C5F7F4FCE010196D1
:100570000E948E0089818093D4018A818093D50165
:100580008B818093D60181EF91E00E948A001092C6
:10059000790126960FB6F894DEBF0FBECDBFDF916E
:1005A000CF911F910F91FF90EF90DF90CF90089522
:1005B000FC0184E091E091838083138212828FEFAB
:1005C00086838783808781878287838781E084878A
:1005D00016861586158214828091EF019091F001A4
:1005E000892B21F4F093F001E093EF01A091ED014C
:1005F000B091EE01109721F01596FC93EE931497AD
:10060000F093EE01E093ED0184E191E0918380832A
:10061000089580917101811118C081E791E00E94D5
:100620002F07892B91F088E591E00E94D80286E29D
:1006300091E09093590180935801109268011092B3
:10064000670181E791E00E94380720E030E04DE04B
:1006500050E060EB71E088E591E00E94C508809170
:100660006901811118C089E691E00E942F07892B4A
:1006700091F087E491E00E94D80288E391E09093A2
:10068000480180934701109257011092560189E664
:1006900091E00E94380720E030E04DE050E069E84A
:1006A00071E087E491E00E94C5081092D701109292
:1006B000D8011092D9018FEF80937D0110927E01B5
:1006C00010927F01109280011092810180E8809346
:1006D00082018AE8809383018BE28093840182EE19
:1006E0008093850184E68093860185E98093870164
:1006F0008DEE8093880110927B0110927C0185EF32
:1007000080937A01089587FF02C02A9A01C02A982F
:100710002B9A2B9886FF02C02A9A01C02A982B9AFE
:100720002B9885FF02C02A9A01C02A982B9A2B98F1
:1007300084FF02C02A9A01C02A982B9A2B9883FF23
:1007400002C02A9A01C02A982B9A2B9882FF02C0D5
:100750002A9A01C02A982B9A2B9881FF02C02A9AC4
:1007600001C02A982B9A2B9880FF02C02A9A01C0B8
:100770002A982B9A2B980895DC018D919C910097D3
:1007800039F0DC01ED91FC910280F381E02D0994B8
:100790000895229A239A0F960C94BC030F931F93EB
:1007A000CF93DF93EB018C01015F1F4FDC011F969C
:1007B0008D919C915097009739F0DC01ED91FC915F
:1007C0000190F081E02D099580E00E94830380E094
:1007D0000E94830380E00E94830380E00E948303E1
:1007E0008C819D81181619060CF064C08FEF0E9451
:1007F0008303E881F9818081882339F02E81382FA5
:10080000320F08F43FEF832F01C080E02C85382F92
:10081000329F030E30E0311D1124832F0E94830389
:10082000E881F9818181882339F02F81382F320FB7
:1008300008F43FEF832F01C080E02D85382F329FD1
:10084000030E30E0311D1124832F0E948303E881C1
:10085000F9818281882339F02885382F320F08F4F6
:100860003FEF832F01C080E02E85382F329F030E8B
:1008700030E0311D1124832F0E94830389859E81DE
:10088000891B8E838A859F81891B8F838B859885A1
:10089000891B88878F8528813981280F311D87FD25
:1008A0003A95398328832C813D81215031093D833C
:1008B0002C8396CF2A813B8137FF02C0215E3F4FB8
:1008C000E90125E0D595C7952A95E1F78FEF0E94BC
:1008D000830380E00E94830380E00E94830380E022
:1008E0000E948303219790F7C801DF91CF911F9158
:1008F0000F910C94BC0387FF02C02C9A01C02C9866
:100900002B9A2B9886FF02C02C9A01C02C982B9A08
:100910002B9885FF02C02C9A01C02C982B9A2B98FB
:1009200084FF02C02C9A01C02C982B9A2B9883FF2D
:1009300002C02C9A01C02C982B9A2B9882FF02C0DF
:100940002C9A01C02C982B9A2B9881FF02C02C9ACC
:1009500001C02C982B9A2B9880FF02C02C9A01C0C2
:100960002C982B9A2B980895DC018D919C910097DF
:1009700039F0DC01ED91FC910280F381E02D0994C6
:100980000895249A239A0F960C94B4040F931F93FE
:10099000CF93DF93EB018C01015F1F4FDC011F96AA
:1009A0008D919C915097009739F0DC01ED91FC916D
:1009B0000190F081E02D099580E00E947B0480E0A9
:1009C0000E947B0480E00E947B0480E00E947B0404
:1009D0008C819D81181619060CF064C08FEF0E945F
:1009E0007B04E881F9818081882339F02E81382FBA
:1009F000320F08F43FEF832F01C080E02C85382FA1
:100A0000329F030E30E0311D1124832F0E947B049E
:100A1000E881F9818181882339F02F81382F320FC5
:100A200008F43FEF832F01C080E02D85382F329FDF
:100A3000030E30E0311D1124832F0E947B04E881D6
:100A4000F9818281882339F02885382F320F08F404
:100A50003FEF832F01C080E02E85382F329F030E99
:100A600030E0311D1124832F0E947B0489859E81F3
:100A7000891B8E838A859F81891B8F838B859885AF
:100A8000891B88878F8528813981280F311D87FD33
:100A90003A95398328832C813D81215031093D834A
:100AA0002C8396CF2A813B8137FF02C0215E3F4FC6
:100AB000E90135E0D595C7953A95E1F78FEF0E94AA
:100AC0007B0480E00E947B0480E00E947B0480E045
:100AD0000E947B04219790F7C801DF91CF911F916D
:100AE0000F910C94B404FC01118A108A0895FF92AE
:100AF0000F931F93CF93DF93EC01809146018F5F9B
:100B0000982F97709093460180FD02C080E001C04D
:100B100080E891FD8064947009F0806240E1F42ED9
:100B2000F80E20E030E000E011E0FE01E20FF31FDC
:100B30006485662331F070E0C8010E942A096F5F66
:100B400001C060E061874F2D469F040E40E0411DCB
:100B50001124411102C0168202C04150468366230F
:100B600011F0615061872F5F3F4F23303105E9F667
:100B7000DF91CF911F910F91FF900895EF92FF9217
:100B80000F931F93CF93DF93CDB7DEB762970FB666
:100B9000F894DEBF0FBECDBF8C017A01F901DC01F4
:100BA0001C968C917A8369835C834B835E834D832F
:100BB00090819D8791819E8792819F87813029F4C2
:100BC000CE0101960E94770506C01C861B861A86F8
:100BD000198618861F82188AB701CE0101960E94D5
:100BE0007305D801ED91FC910484F585E02DBE01DB
:100BF0006F5F7F4FC801099562960FB6F894DEBF0C
:100C00000FBECDBFDF91CF911F910F91FF90EF905D
:100C10000895EF92FF920F931F93CF93DF93CDB779
:100C2000DEB762970FB6F894DEBF0FBECDBF8C0162
:100C30007A01F901DC011C968C917A8369835C83CB
:100C40004B835E834D8390819D8791819E879281A6
:100C50009F87813029F4CE0101960E94770506C056
:100C60001C861B861A86198618861F8283E0888B4D
:100C7000B701CE0101960E947305D801ED91FC9158
:100C80000484F585E02DBE016F5F7F4FC801099593
:100C900062960FB6F894DEBF0FBECDBFDF91CF9145
:100CA0001F910F91FF90EF9008951F920F920FB632
:100CB0000F9211242F933F938F939F93AF93BF93E2
:100CC0008091DB019091DC01A091DD01B091DE010A
:100CD0003091DA0123E0230F2D3720F40196A11D76
:100CE000B11D05C026E8230F0296A11DB11D20935A
:100CF000DA018093DB019093DC01A093DD01B093D6
:100D0000DE018091DF019091E001A091E101B091BD
:100D1000E2010196A11DB11D8093DF019093E001D6
:100D2000A093E101B093E201BF91AF919F918F91A8
:100D30003F912F910F900FBE0F901F9018952FB7D6
:100D4000F8946091DB017091DC018091DD0190915C
:100D5000DE012FBF08953FB7F8948091DF01909195
:100D6000E001A091E101B091E20126B5A89B05C088
:100D70002F3F19F00196A11DB11D3FBF6627782FA7
:100D8000892F9A2F620F711D811D911D42E0660F00
:100D9000771F881F991F4A95D1F70895CF92DF9248
:100DA000EF92FF92CF93DF936B017C010E94AB0621
:100DB000EB01C114D104E104F10479F00E94AB0607
:100DC0006C1B7D0B683E7340A0F381E0C81AD1080C
:100DD000E108F108C851DC4FECCFDF91CF91FF90D3
:100DE000EF90DF90CF900895789484B5826084BDB1
:100DF00084B5816084BD85B5826085BD85B581601F
:100E000085BDEEE6F0E0808181608083E1E8F0E07E
:100E10001082808182608083808181608083E0E8AD
:100E2000F0E0808181608083E1EBF0E0808184608C
:100E30008083E0EBF0E0808181608083EAE7F0E08E
:100E400080818460808380818260808380818160F2
:100E500080838081806880831092C1000895FC01A6
:100E600081E090E02081222311F080E090E008955D
:100E700021E0FC012083089508950E94F4060E9459
:100E80000903C0E0D0E00E949C002097E1F30E949B
:100E90000000F9CF8F929F92AF92BF92EF92FF9294
:100EA0000F931F93CF93DF93EC01188219821A825C
:100EB0004423B9F1E0E0F0E08B010A5F1F4F7B01B2
:100EC00089E0E80EF11C842E912CA12CB12CD801C4
:100ED000AE0FBF1F2C91D701AE0FBF1F6C91222305
:100EE000E1F06623D1F030E040E050E02F5F3F4F6B
:100EF0004F4F5F4F70E080E090E06F5F7F4F8F4F0C
:100F00009F4F0E941A099B01AC01C501B4010E94C8
:100F10001A09DE01AE0FBF1F8C933196E330F10545
:100F2000B1F6CE01DF91CF911F910F91FF90EF901D
:100F3000BF90AF909F908F900895CF92DF92EF92E5
:100F4000FF92CF93DF93EC018091E7019091E8014C
:100F50009C012F5F3F4F3093E8012093E7018617F4
:100F600097079CF10E949F069B01AC01E091E7016D
:100F7000F091E80188EE93E0E89FB001E99F700DE1
:100F8000F89F700D1124882777FD8095982FC090C9
:100F9000E301D090E401E090E501F090E6012C1926
:100FA0003D094E095F090E943E093A832983109248
:100FB000E8011092E7010E949F066093E30170939D
:100FC000E4018093E5019093E601DF91CF91FF90DA
:100FD000EF90DF90CF9008958F929F92AF92BF9243
:100FE000EF92FF920F931F93CF93DF9300D01F9246
:100FF000CDB7DEB78C01F62EF80183819481A581EF
:10100000B681892B8A2B8B2BD1F00E94AB06809066
:10101000E9019090EA01A090EB01B090EC01681911
:1010200079098A099B09D80113968D909D90AD90FE
:10103000BC901697681579058A059B05E8F20E9411
:10104000AB066093E9017093EA018093EB01909302
:10105000EC01D8011B96ED91FC911C97309751F053
:10106000D80117964D915D916D917C911A978F2DB6
:101070000995F82EA090EF01B090F001A114B104F1
:1010800051F1F501E484D80111968D919C9112974C
:101090008436910508F41486D501ED91FC91828087
:1010A00093804F2DB501CE0101960E944A07F501AC
:1010B00045855685628173819E012F5F3F4FC50133
:1010C000F4010995D5011C96EC921C971496AD90ED
:1010D000BC901597D3CF69E170E0C8010E949D07CD
:1010E0000F900F900F90DF91CF911F910F91FF9074
:1010F000EF90BF90AF909F908F900895CF92DF9226
:10110000EF92FF920F931F93CF93DF93EC01442351
:10111000F1F06115710581F19B0140E050E060E460
:1011200072E48FE090E00E946009CB80DC80ED806B
:10113000FE8089019A010C151D052E053F0510F44E
:10114000970186010B831C832D833E8315C0611597
:10115000710571F09B0140E050E060E472E48FE0C3
:1011600090E00E9460092B833C834D835E8304C022
:101170001B821C821D821E82DF91CF911F910F91D5
:10118000FF90EF90DF90CF900895CF92DF92EF9293
:10119000FF920F931F93CF93DF93EC016B018A01B2
:1011A0007901121613061CF07A0100E010E0E881C4
:1011B000F9810480F581E02DCE010995C801880FE1
:1011C000991F800F911F8C0D9D1D9B838A83FE8626
:1011D000ED86E881F9810284F385E02DCE01099541
:1011E00041E0BC0181EF91E00E947E08CE01DF91D9
:1011F000CF911F910F91FF90EF90DF90CF900895C6
:101200008FEF8093F1011092F3011092F20110928E
:10121000FD011092FC018FEF9FEFDC018093F8013C
:101220009093F901A093FA01B093FB010895F8940B
:101230000C94B309DB018F939F930E947F09BF91A8
:10124000AF91A29F800D911DA39F900DB29F900D15
:101250001124089597FB072E16F4009407D077FD0C
:1012600009D00E948A0907FC05D03EF4909581952B
:101270009F4F0895709561957F4F0895A1E21A2EB2
:10128000AA1BBB1BFD010DC0AA1FBB1FEE1FFF1F2A
:10129000A217B307E407F50720F0A21BB30BE40B7A
:1012A000F50B661F771F881F991F1A9469F76095C1
:1012B0007095809590959B01AC01BD01CF0108957B
:1012C000052E97FB1EF400940E94770957FD07D066
:1012D0000E943E0907FC03D04EF40C947709509508
:1012E0004095309521953F4F4F4F5F4F0895909512
:1012F0008095709561957F4F8F4F9F4F08950E9405
:10130000A409A59F900DB49F900DA49F800D911DE1
:1013100011240895AA1BBB1B51E107C0AA1FBB1FC4
:10132000A617B70710F0A61BB70B881F991F5A9571
:10133000A9F780959095BC01CD010895EE0FFF1F90
:101340000590F491E02D0994A29FB001B39FC001D4
:10135000A39F700D811D1124911DB29F700D811DE1
:0A1360001124911D0895F894FFCFA9
:10136A00000000003C073C073C0763005F00870061
:10137A0000000000BE0509063C0763005F00870005
:10138A003C0700000000BE050906C10463005F00B7
:10139A008700C60400000000BE050906C9036300F1
:0613AA005F008700CE0386
:00000001FF
