:100000000C9435000C945D000C945D000C945D0024
:100010000C945D000C945D000C945D000C945D00EC
:100020000C945D000C945D000C945D000C945D00DC
:100030000C945D000C945D000C945D000C945D00CC
:100040000C94F8050C945D000C945D000C945D001C
:100050000C945D000C945D000C945D000C945D00AC
:100060000C945D000C945D00E10511241FBECFEFE0
:10007000D8E0DEBFCDBF11E0A0E0B1E0E4E9FEE0F2
:1000800002C005900D92A634B107D9F721E0A6E48D
:10009000B1E001C01D92A03FB207E1F710E0CAE64F
:1000A000D0E004C02297FE010E943507C836D10770
:1000B000C9F70E941E040C94AC060C940000FC01CD
:1000C000858596850895CF93DF9300D000D000D02A
:1000D000CDB7DEB7AB011C821D821E82DC01ED9123
:1000E000FC910190F081E02D19821A821B829E0101
:1000F0002F5F3F4FBE016C5F7F4F099526960FB66D
:10010000F894DEBF0FBECDBFDF91CF91089580E0A0
:1001100090E008958091790190917A01892B49F5B9
:100120004091C9013091CA012091CB0180E090E05B
:10013000FC01EE55FE4F408331832283FC01E558DC
:10014000FE4F40833183228303968732910581F7E6
:1001500084E68093DA0164E68AED91E00E94CD04A2
:100160008091790190917A01019690937A01809320
:1001700079010895FC0184E091E0918380831382EA
:1001800012828FEF86838783808781878287838728
:1001900081E0848716861586158214828091D801A5
:1001A0009091D901892B21F4F093D901E093D801E2
:1001B000A091D601B091D701109721F01596FC932C
:1001C000EE931497F093D701E093D60184E191E088
:1001D00091838083089580917101811118C081E716
:1001E00091E00E941004892B91F088E591E00E9433
:1001F000BA0086E291E090935901809358011092E1
:1002000068011092670181E791E00E94190420E0E3
:1002100030E04DE050E062EA71E088E591E00E9454
:10022000A60580916901811118C089E691E00E94BC
:100230001004892B91F087E491E00E94BA0088E3D2
:1002400091E09093480180934701109257011092DA
:10025000560189E691E00E94190420E030E04DE06B
:1002600050E06BE771E087E491E00E94A6051092F0
:10027000C9011092CA011092CB01089587FF02C0F4
:100280002A9A01C02A982B9A2B9886FF02C02A9A94
:1002900001C02A982B9A2B9885FF02C02A9A01C088
:1002A0002A982B9A2B9884FF02C02A9A01C02A9878
:1002B0002B9A2B9883FF02C02A9A01C02A982B9A66
:1002C0002B9882FF02C02A9A01C02A982B9A2B9859
:1002D00081FF02C02A9A01C02A982B9A2B9880FF8E
:1002E00002C02A9A01C02A982B9A2B980895DC0103
:1002F0008D919C91009739F0DC01ED91FC91028089
:10030000F381E02D09940895229A239A0F960C9474
:1003100077010F931F93CF93DF93EB018C01015F64
:100320001F4FDC011F968D919C915097009739F0DB
:10033000DC01ED91FC910190F081E02D099580E0C8
:100340000E943E0180E00E943E0180E00E943E014A
:1003500080E00E943E018C819D81181619060CF0E8
:1003600064C08FEF0E943E01E881F981808188237B
:1003700039F02E81382F320F08F43FEF832F01C060
:1003800080E02C85382F329F030E30E0311D112480
:10039000832F0E943E01E881F9818181882339F011
:1003A0002F81382F320F08F43FEF832F01C080E0F8
:1003B0002D85382F329F030E30E0311D1124832FFD
:1003C0000E943E01E881F9818281882339F02885E5
:1003D000382F320F08F43FEF832F01C080E02E85C5
:1003E000382F329F030E30E0311D1124832F0E94DD
:1003F0003E0189859E81891B8E838A859F81891B09
:100400008F838B859885891B88878F852881398183
:10041000280F311D87FD3A95398328832C813D8132
:10042000215031093D832C8396CF2A813B8137FFB0
:1004300002C0215E3F4FE90185E0D595C7958A95B9
:10044000E1F78FEF0E943E0180E00E943E0180E0D4
:100450000E943E0180E00E943E01219790F7C80172
:10046000DF91CF911F910F910C94770187FF02C00C
:100470002C9A01C02C982B9A2B9886FF02C02C9A9C
:1004800001C02C982B9A2B9885FF02C02C9A01C092
:100490002C982B9A2B9884FF02C02C9A01C02C9880
:1004A0002B9A2B9883FF02C02C9A01C02C982B9A70
:1004B0002B9882FF02C02C9A01C02C982B9A2B9863
:1004C00081FF02C02C9A01C02C982B9A2B9880FF98
:1004D00002C02C9A01C02C982B9A2B980895DC010D
:1004E0008D919C91009739F0DC01ED91FC91028097
:1004F000F381E02D09940895249A239A0F960C9481
:100500006F020F931F93CF93DF93EB018C01015F79
:100510001F4FDC011F968D919C915097009739F0E9
:10052000DC01ED91FC910190F081E02D099580E0D6
:100530000E94360280E00E94360280E00E9436026D
:1005400080E00E9436028C819D81181619060CF0FD
:1005500064C08FEF0E943602E881F9818081882390
:1005600039F02E81382F320F08F43FEF832F01C06E
:1005700080E02C85382F329F030E30E0311D11248E
:10058000832F0E943602E881F9818181882339F026
:100590002F81382F320F08F43FEF832F01C080E006
:1005A0002D85382F329F030E30E0311D1124832F0B
:1005B0000E943602E881F9818281882339F02885FA
:1005C000382F320F08F43FEF832F01C080E02E85D3
:1005D000382F329F030E30E0311D1124832F0E94EB
:1005E000360289859E81891B8E838A859F81891B1E
:1005F0008F838B859885891B88878F852881398192
:10060000280F311D87FD3A95398328832C813D8140
:10061000215031093D832C8396CF2A813B8137FFBE
:1006200002C0215E3F4FE90195E0D595C7959A95A7
:10063000E1F78FEF0E94360280E00E94360280E0F0
:100640000E94360280E00E943602219790F7C8018E
:10065000DF91CF911F910F910C946F02FC01118AD1
:10066000108A0895FF920F931F93CF93DF93EC01AD
:10067000809146018F5F982F97709093460180FD7F
:1006800002C080E001C080E891FD8064947009F0B0
:10069000806220E1F22EF80E20E030E000E011E070
:1006A000FE01E20FF31F6485662331F070E0C8019C
:1006B0000E94BF066F5F01C060E061874F2D469FBB
:1006C000040E40E0411D1124411102C0168202C0F7
:1006D00041504683662311F0615061872F5F3F4F81
:1006E00023303105E9F6DF91CF911F910F91FF90F3
:1006F0000895EF92FF920F931F93CF93DF93CDB79F
:10070000DEB762970FB6F894DEBF0FBECDBF8C0187
:100710007A01F901DC011C968C917A8369835C83F0
:100720004B835E834D8390819D8791819E879281CB
:100730009F87813029F4CE0101960E94320306C0C2
:100740001C861B861A86198618861F82188AB7018E
:10075000CE0101960E942E03D801ED91FC910484F4
:10076000F585E02DBE016F5F7F4FC8010995629648
:100770000FB6F894DEBF0FBECDBFDF91CF911F91B2
:100780000F91FF90EF900895EF92FF920F931F93B8
:10079000CF93DF93CDB7DEB762970FB6F894DEBF85
:1007A0000FBECDBF8C017A01F901DC011C968C9142
:1007B0007A8369835C834B835E834D8390819D87BD
:1007C00091819E8792819F87813029F4CE01019685
:1007D0000E94320306C01C861B861A86198618865C
:1007E0001F8283E0888BB701CE0101960E942E0301
:1007F000D801ED91FC910484F585E02DBE016F5F79
:100800007F4FC801099562960FB6F894DEBF0FBE00
:10081000CDBFDF91CF911F910F91FF90EF90089581
:10082000FC0181E090E02081222311F080E090E043
:10083000089521E0FC012083089508950E94710627
:100840000E94EB00C0E0D0E00E948A002097E1F314
:100850000E940000F9CF8F929F92AF92BF92EF92C9
:10086000FF920F931F93CF93DF93EC0118821982AD
:100870001A824423B9F1E0E0F0E08B010A5F1F4FD8
:100880007B0189E0E80EF11C842E912CA12CB12C67
:10089000D801AE0FBF1F2C91D701AE0FBF1F6C91B7
:1008A0002223E1F06623D1F030E040E050E02F5FFA
:1008B0003F4F4F4F5F4F70E080E090E06F5F7F4FA2
:1008C0008F4F9F4F0E94AF069B01AC01C501B40141
:1008D0000E94AF06DE01AE0FBF1F8C933196E3304E
:1008E000F105B1F6CE01DF91CF911F910F91FF90ED
:1008F000EF90BF90AF909F908F900895CF92DF922E
:10090000EF92FF92CF93DF93EC018091D001909111
:10091000D1019C012F5F3F4F3093D1012093D00133
:10092000861797079CF10E9442069B01AC01E0915B
:10093000D001F091D10188EE93E0E89FB001E99FEA
:10094000700DF89F700D1124882777FD8095982FE2
:10095000C090CC01D090CD01E090CE01F090CF01BD
:100960002C193D094E095F090E94D3063A83298359
:100970001092D1011092D0010E9442066093CC01E6
:100980007093CD018093CE019093CF01DF91CF91F1
:10099000FF90EF90DF90CF9008958F929F92AF924B
:1009A000BF92EF92FF920F931F93CF93DF9300D0EC
:1009B0001F92CDB7DEB78C01F62EF80183819481AA
:1009C000A581B681892B8A2B8B2BD1F00E944E06F4
:1009D0008090D2019090D301A090D401B090D50125
:1009E000681979098A099B09D80113968D909D9001
:1009F000AD90BC901697681579058A059B05E8F2BD
:100A00000E944E066093D2017093D3018093D4016B
:100A10009093D501D8011B96ED91FC911C973097CE
:100A200051F0D80117964D915D916D917C911A9777
:100A30008F2D0995F82EA090D801B090D901A1145E
:100A4000B10451F1F501E484D80111968D919C9186
:100A500012978436910508F41486D501ED91FC9126
:100A6000828093804F2DB501CE0101960E942B0408
:100A7000F50145855685628173819E012F5F3F4F49
:100A8000C501F4010995D5011C96EC921C971496AA
:100A9000AD90BC901597D3CF69E170E0C8010E947A
:100AA0007E040F900F900F90DF91CF911F910F91C7
:100AB000FF90EF90BF90AF909F908F900895CF924E
:100AC000DF92EF92FF920F931F93CF93DF93EC018E
:100AD0004423F1F06115710581F19B0140E050E084
:100AE00060E472E48FE090E00E94F506CB80DC8049
:100AF000ED80FE8089019A010C151D052E053F052C
:100B000010F4970186010B831C832D833E8315C04F
:100B10006115710571F09B0140E050E060E472E402
:100B20008FE090E00E94F5062B833C834D835E832B
:100B300004C01B821C821D821E82DF91CF911F91F7
:100B40000F91FF90EF90DF90CF900895CF92DF92BA
:100B5000EF92FF920F931F93CF93DF93EC016B0102
:100B60008A017901121613061CF07A0100E010E0E8
:100B7000E881F9810480F581E02DCE010995C80155
:100B8000880F991F800F911F8C0D9D1D9B838A8359
:100B9000FE86ED86E881F9810284F385E02DCE01A1
:100BA000099541E0BC018AED91E00E945F05CE010C
:100BB000DF91CF911F910F91FF90EF90DF90CF9039
:100BC00008958FEF8093DA011092DC011092DB011F
:100BD0001092E6011092E5018FEF9FEFDC01809308
:100BE000E1019093E201A093E301B093E401089541
:100BF0001F920F920FB60F9211242F933F938F9352
:100C00009F93AF93BF938091E8019091E901A091E8
:100C1000EA01B091EB013091E70123E0230F2D377A
:100C200020F40196A11DB11D05C026E8230F0296F0
:100C3000A11DB11D2093E7018093E8019093E90184
:100C4000A093EA01B093EB018091EC019091ED014A
:100C5000A091EE01B091EF010196A11DB11D80930D
:100C6000EC019093ED01A093EE01B093EF01BF91E1
:100C7000AF919F918F913F912F910F900FBE0F9049
:100C80001F9018952FB7F8946091E8017091E901D1
:100C90008091EA019091EB012FBF08953FB7F8943E
:100CA0008091EC019091ED01A091EE01B091EF01E6
:100CB00026B5A89B05C02F3F19F00196A11DB11DB7
:100CC0003FBF6627782F892F9A2F620F711D811DD4
:100CD000911D42E0660F771F881F991F4A95D1F733
:100CE0000895789484B5826084BD84B5816084BDA4
:100CF00085B5826085BD85B5816085BDEEE6F0E095
:100D0000808181608083E1E8F0E0108280818260F0
:100D10008083808181608083E0E8F0E08081816071
:100D20008083E1EBF0E0808184608083E0EBF0E0A1
:100D3000808181608083EAE7F0E080818460808345
:100D400080818260808380818160808380818068EF
:100D500080831092C1000895F8940C944807DB0139
:100D60008F939F930E941407BF91AF91A29F800D14
:100D7000911DA39F900DB29F900D1124089597FB94
:100D8000072E16F4009407D077FD09D00E941F07A4
:100D900007FC05D03EF4909581959F4F089570957E
:100DA00061957F4F0895A1E21A2EAA1BBB1BFD017E
:100DB0000DC0AA1FBB1FEE1FFF1FA217B307E4073A
:100DC000F50720F0A21BB30BE40BF50B661F771F92
:100DD000881F991F1A9469F7609570958095909572
:100DE0009B01AC01BD01CF010895052E97FB1EF4B8
:100DF00000940E940C0757FD07D00E94D30607FC01
:100E000003D04EF40C940C075095409530952195E5
:100E10003F4F4F4F5F4F0895909580957095619526
:100E20007F4F8F4F9F4F08950E943907A59F900DC8
:100E3000B49F900DA49F800D911D11240895AA1BAD
:100E4000BB1B51E107C0AA1FBB1FA617B70710F0B5
:100E5000A61BB70B881F991F5A95A9F780959095E7
:100E6000BC01CD010895EE0FFF1F0590F491E02D18
:100E70000994A29FB001B39FC001A39F700D811D73
:100E80001124911DB29F700D811D1124911D089593
:040E9000F894FFCF04
:100E9400000000001D041D041D0463005F008700A2
:100EA400000000007903C4031D0463005F00870091
:100EB4001D04000000007903C4037C0263005F008A
:100EC40087008102000000007903C40384016300E9
:060ED4005F0087008901A8
:00000001FF
